:400000000010002011000000351100003511000008B501F0ABF8C04638B5144C23688025ED022B432360302001F0C8FB104A114B1A601022104B1A601032104B1A6080224B
:4000400012060F4B1A6025600E4A0F4B1A600F4A0F4B1A6009200F4901F06EFB092001F045FB00220C4B1A6038BDC04600010B400600008004010B40080202400C020240D5
:4000800008010B4005000080000002402200008040000240CD1900000C020B4010B572B601223C4B1A70002410E03B4863001A195200821891881B195B001A5AC3185888B1
:4000C0000004104301F0B4F80134E4B2012CECD93149081C0C30343101F090F82F4A304B1A60C02292042F4B1A602F4A2F4B1A60EE222F4B1A6099231B042E4A1360A821BD
:4001000049052D4A11602D4A13602D4A1360802189052C4A11602C4A1360C02292022B4B1A6005222A4B1A6001322A4B1A602A4B1978043A0A431A70284802783C218A43E9
:4001400028390A430270197816220A431A70A022234B1A60234A244B1A602022234B1A60C0225203224B1A604022224B1A60224A224B1A600122224B1A60224A224B1A607E
:400180000322224B1A602132214B1A60FFF744FF10BDC0461C700F403823000000009930000001400800014003EE00000C0001401000014000500F4008500F4010500F40E1
:4001C00020500F4028500F4030500F4038500F402000004000800F4000700F4001700F40000004400010C30008000440180004400801044000020440000C18000802044061
:4002000000030440860D000008030440000404400804044010B5064C2378002B07D1054B002B02D0044800E000BF0123237010BD48010020000000000823000008B5084BE8
:40024000002B03D00748084900E000BF07480368002B00D108BD064B002BFBD09847F9E700000000082300004C010020C800002000000000024A1368013313607047C04615
:4002800064010020F0B557464E464546E0B462B601F024FD002001F0E5FC002001F0BAFC012001F073FC01F0A7FC0028FBD0012001F06CFCE34C201C0021802201F014FF2D
:4002C000E14B1C600025C823E5540133E5540133E55400F0C9FF80214900081C221C01F049F801F085F9D94801F0F4F90F20D84901F012FAD74AD84B5360D8490B6A1B0298
:400300001B0AC020000603430B62956007231360012001F0ADFB002600239A46D04B1B680A3BAB4200DC1BE3CD4B1D68C64B1A68C823D35C012B04D100F0BAFE002001F0DC
:40034000ABFBC14B1B68FD229A5C012A0CD1FD32985CC0B201F002F8BB4B1A680021FD23D154012001F098FB0024F1E2A3001B19DB001B19BB4AD318DB78072B00D9E6E225
:400380009B00B94AD3589F46A3001B19DB001B19B44AD3181B7F012B3BD1A3001B19DB001B19D318D87C1A7D12020243111C5A7D12040A43997D090611430F1CD87B1A7CE5
:4003C00012020243111C5A7C083312040A439B7A1B061343FB18A24A1268934200DBB6E2A3001B19DB001B199E4AD3180021197758799A7912020243111CD8790004021C6F
:400400000A43187A0006104319799A7B00F0CCFA9DE2944AA3001B19DB001B19995C4900D3185A789B781B021343864A525E1BB29A4200DC8BE28A4B1A68A3001B19DB00E8
:400440001B198849CB18DA74100A1875100C5875120E9A7501221A7779E2824AA3001B19DB001B19995C4900D3185A789B781B021343744A525E1BB29A4200DC67E2A30066
:400480001B19DB001B19774AD718397908239946B9444B469A79002000F086FA4B46587939797A79BB791B021343FA79120413433A7A12061A4301F0C3FB48E2A3001B19F6
:4004C000DB001B19674AD3181979654B5B181B79002B29D1624A10688B00D3189860614AA3001B19DB001B19985C4000D3185A789B781B021343534A125E1BB29A4208DDAE
:40050000A3001B19DB001B195648181800F084FB1DE2A3001B19DB001B19524AD3189A7B002000F041FA12E24E4AA3001B19DB001B19985C4000D3185A789B781B021343E3
:40054000404A125E1BB29A4227DD454F8B00FB189B689846A3001B19DB001B19414AD318D87B1A7C120210435A7C0833120402439B7A1B06134343443A68934200DBE6E17D
:400580003A68890079188A60A3001B19DB001B193448181800F040FBD9E1314B591800230B71D4E1A3001B19DB001B192D4AD3181B7F012B5AD1A3001B19DB001B19D318D3
:4005C000D87C1A7D12020243111C5A7D12040A43997D090611430F1CD87B1A7C12020243111C5A7C083312040A439B7A1B061343FB181B4A1268934200DBA8E1A3001B193B
:40060000DB001B19174AD71800223A77397908239846B84443469A79002000F0C5F97979BB791B020B431A1CF8790004031C1343387A00061843397943465A7900F0B4F9F8
:4006400085E1C046F8010020F80200202C2300007502000010E000E07FBB000000ED00E064010020FC0200200C230000CB4AA3001B19DB001B19995C4900D3185A789B7863
:400680001B021343C64A525E1BB29A4200DC5EE1C44B1A68A3001B19DB001B19BF49CB18DA74100A1875100C5875120E9A7501221A774CE1B94AA3001B19DB001B19995C15
:4006C0004900D3185A789B781B021343B44A525E1BB29A4236DDA3001B19DB001B19AF4AD218D37C117D09021943081C517D09040143937D1B060B431F1C131CD07B127CF2
:4007000012020243111C5A7C083312040A439B7A1B061343FB18A34A1268934200DB16E1A04B1A68A0000019C00003199B48C018C274110A0175110C4175120E827500F0B4
:4007400031FA04E1A3001B19DB001B19934AD31819799A7B002000F027F9F8E08F4AA3001B19DB001B19995C4900D3185A789B781B0213438A4A525E1BB29A4236DDA300E9
:400780001B19DB001B19854AD218D37C117D09021943081C517D09040143937D1B060B431F1C131CD07B127C12020243111C5A7C083312040A439B7A1B061343FB18794A98
:4007C0001268934200DBC2E0764B1A68A0000019C00003197148C018C274110A0175110C4175120E827500F0EFF8B0E0A3001B19DB001B19694AD31819799A7B002000F071
:40080000D3F8A4E0654AA3001B19DB001B19995C4900D3185A789B781B021343604A525E1BB29A4235DDA3001B19DB001B195B4AD218D37C117D09021943081C517D090486
:400840000143937D1B060B431F1C131CD07B127C12020243111C5A7C083312040A439B7A1B061343FB184F4A126893426FDA4D4B1A68A0000019C00003194848C018C2745B
:40088000110A0175110C4175120E827500F0E2F85DE0A3001B19DB001B19404AD31819799A7B002000F080F851E03C4AA3001B19DB001B19995C4900D3185A789B781B0264
:4008C0001343374A525E1BB29A4235DDA3001B19DB001B19314AD218D37C117D09021943081C517D09040143937D1B060B439C46131CD07B127C12020243111C5A7C0833E4
:4009000012040A439B7A1B0613436344254A126893421CDA234B1A68A0000019C00003191E48C018C274110A0175110C4175120E827500F07FFA0AE0A3001B19DB001B19C0
:40094000164AD31819799A7B002000F02DF80134144B5B699C4200DA08E5012001F016F9104B1B68323BB34201DD0E4B1E680D4B1B68F53BFF3B534500DCCFE4094B1B68F2
:400980009A4601F081F8002803D0002001F070F8C4E4012001F06CF8C0E4C046FC020020F801002064010020F8B5071C0E1C151C002405E0201C311C3A1C01F041F9013482
:4009C000A542F7DCF8BDC04670B5051C0179827B0020FFF7E9FFE97D2B7E1B020B431A1C6E7E3604331C1343AE7E36061E4310E029796C79AB791B022343181CEA791204B8
:400A0000131C03432A7A12061A43301C01F018F90336AB7BB342EBDCE87D2A7E120202436B7E1B0413431A1CAB7E1B0613430133EB75190A2A1C2976190C6976190EA9763F
:400A40001732022B05DD131C0022EA755A709A70DA7070BD70B5041C417983791B020B431A1CC5792D042B1C1343057A2D061D432E042B02B60E36029B0E1B0433432E069C
:400A8000B60E1E430179827B0020FFF78DFFE17D237E1B020B431A1C607E0004031C1343A07E000618430BD121792A1C01F0C8F821790120321C01F0C3F80123637737E04B
:400AC000A37B013B98420DD12179181C2A1C01F0B7F8A07B02382179321C01F0B1F8FF23637725E021792A1C01F0AAF8E17D237E1B020B431A1C607E0004031C1343A07ED0
:400B00000006184321790138321C01F099F8E17D237E1B020B431A1C607E0004031C1343A07E0006184321790130321C01F088F8E07D227E12020243637E1B0413431A1CCF
:400B4000A37E1B0613431D22A2569B18E375190A2176190C61761B0EA37670BDC343DBB2542B07D89800181AFF3000025A00D318184315E0A92B09D8553BDAB2500080183C
:400B800000049300D21AFF32104309E05633DAB25000801800029300D21AFF32120410437047C04670B5051C00240BE02E79E87D0019C0B2FFF7D2FF021C201C311C01F025
:400BC0003FF80134AB7BA342F0DCE87D2A7E120202436B7E1B0413431A1CAB7E1B0613430133EB75190A2976190C69761B0EAB7670BDC04610B50404240E0C60FF21014075
:400C000019600002000E106010BDC0460002090401431143081C7047F0B557464E464546E0B486B0041C417983791B020B431A1CC0790004031C1343207A0006184305A969
:400C400001AA03ABFFF7D6FF617AA37A1B020B431A1CE07A0004031C1343207B0006184304A96A4602ABFFF7C5FF059B049A934201DD05920493039B029A934201DD039283
:400C80000293019B009A934201DD01920093049D059EAB1B9846039B9C46029B62469A1A019F009BDB1B9A4621796048405C00282CD1013081465D484B4643544346D817DE
:400CC000000F404400115A4B98464900C8522179D017000F82181211490041440A8122795346D917090F0B1C53441B1152004244138223795B0043441E8323795B00434494
:400D000062461A8423795B0043441F852779484A79005018008B8A5A01B213B2CB189D4209DC434A7B00D3181D8323795B00995A4942995210E09E4209DB3D4A7B00D31816
:400D40001E8323795B00995A4942995204E07B003749CB1882181A8323795A0034498A18158C118928B20AB28218029882420ADB2F495B00CA18108423795B00CB181A89F0
:400D800052421A8112E0039882420ADC28495B00CA18108423795B00CB181A8952421A8104E05B00224AD3186918198423795A001F498A18158D118A28B20AB28218009826
:400DC00082420ADB1A495B00CA18108523795B00CB181A8A52421A8212E0019882420ADC13495B00CA18108523795B00CB181A8A52421A8204E05B000D4AD31869181985B6
:400E000025796B000A4AD3182022985E2822995E18229A5EFFF7FAFEA27B291CFFF7C4FD06B01CBC90469946A246F0BD680100207C010020F0B557464E464546E0B486B08F
:400E4000041CC17D037E1B020B431A1C467E3604331C1343867E36061E432823C75C013BC55C0023059304930393037F002B24D1013303778D4B186801F03EF901F06AF9D7
:400E8000C517AB0FC01803252840C51A0535EDB22723E554EDB20022231C21331A705A7004331A705A70023B1A705A7001F052F9A17B01F0E1F80E1C00276179A3791B02AF
:400EC0000B431A1CE0790004031C1343207A0006184305A903AA04ABFFF78CFE6DB20598291C00F0E3FF81460498291C00F0DEFF80460398291C00F0D9FF7BB26A1E9342D7
:400F000006DB4A465242914642465242904640420137FFB2FAB292466D00AB422CDA2123E25C0133E35C1B0213431B041B144B449BB2221C213213701B0A53702523E25C80
:400F40000133E35C1B0213431B041B1443449BB2221C253213701B0A53702323E25C0133E35C1B0213431B041B14181880B2231C23331870000A58702123E25C0133E35C6B
:400F80001B0213431BB2FF2B06DD01225242231C21331A7000225A702523E25C0133E35C1B0213431BB2FF2B06DD01225242231C25331A7000225A702323E25C0133E35C23
:400FC0001B0213431BB2FF2B06DD01225242231C23331A7000225A702123E25C0133E35C1B0213431BB2002B04DA0022231C21331A705A702523E25C0133E35C1B0213432F
:401000001BB2002B04DA0022231C25331A705A702323E25C0133E35C1B0213431BB2002B04DA0022231C23331A705A702179A27B0020FFF7B9FC237998462123E35C2222BF
:40104000A05C000218432323E35C0232A15C090219432523E35C0232A25C12021A4300B209B212B2FFF7D2FD021C301C414600F0E7FD53466A46D371D3795BB29D4206D179
:40108000002323772179A27B0020FFF78DFCE675320A2276320C6276360EA6762823E75406B01CBC90469946A246F0BD6401002000221D4B1A601D4B1B68CA215A54C9390B
:4010C000C932995429E0C8229A5C002A03D10021C932995427E0CA229A5C002AF3D0002310E0114A126891008918C9008A1810495218191C80310D48006841180978D15458
:401100000133DBB2282BECD9074A136801331360064B1A680021CA23D154044B1B68C8229A5C012AD7D0704778010020F8020020FC020020FEE7C04608B5031C094A1068BF
:40114000C318094A9A1A802149008A4202DC054A136005E000F09CFF0C2303600120404208BDC046CC000020A007002070B50F4E0F4D13E029686B68AC68002202E001C9FD
:4011800001C30432A242FAD1E868002202E0002102C304328242FAD11035013E002EE9D100F07CFFFFF76EF8FEE7C04601000000A027000008B500230AE0032B03D89A0034
:4011C0000A49505800E00A4899000A4A885001332F2BF2D9FEF762FF0022074B1A608022D205116801230B43136008BD000000003511000000000020C0000020F0B50025B4
:40120000002711E0BB00C658F3B2FF22964308E06A008A181478A419527822700135013BDBB2002BF4D10137092FEBD9F0BDC04608B50A1C002100F057FF08BD08B50A20B9
:4012400000F054FA08BDC04608B500F01DF808BD08B5044A1368802109060B431360FFF7EDFF08BD0000064008B5064B1B78002B04D1FFF7E9FF0122024B1A70FFF7E8FFA4
:4012800008BDC046AC01002010B500241D4B1C601D4A1E4B1A601E4A11680C230B4313601C4B1D4A13601D4A14601D491D4A11601D4A136002221D4B1A600A2000F020FA40
:4012C0000A20032100F04AFA0A20194900F034FA184B1C60184B1C603222FF32174B1A60174B1C602E3AFF3A164B1A60164B1C60164B1C70164B1C70164B1C80164B002212
:401300001A7010BD0000064000F8004060000640700006400701008000030640040306401000FE00100306400002064004020640A5130000C80E0640880E0640480F064016
:40134000080F0640C80F0640880F06409C040020A00400209A04002098040020044A1368FF218B4340000840184310607047C0461003064070B5061C0D1C141E0BD00A2051
:4013800000F0BEF9044B1C60044B1E80044B1D800A2000F0ABF970BDA4040020A80400209E040020F8B5724B1B68002B00D09847704B1C68704B1E680223FF331C4232D0A3
:4013C0006E4A13685B005B081360630619D56C4A117810230B4313706A4B1B78DB070BD5694B1A78694B1B889A420AD0644A117808230B43137004E0614A117802230B43D4
:4014000013700023624A13600421624A11606249584A11605B4A1370584A1368802109060B431360A3E0330744D55C4B1D68554B1B78012B04D0002B16D0032B28D032E0B3
:40144000524B1B88564A1288934209D2554A1268D318EAB21A704D4A13880133138025E00322484B1A7021E04F4B1B88AB4207D9454B1D70454B1D800122424B1A7015E054
:40148000414B1A78414B1A8003223E4B1A700DE0464B1A68802149020A431A601968444A0A401A6002E0002000F034F90422394B1A6000E00025202121401BD02D4A40237B
:4014C00013603C4B3C481860022018602E4F3B7834480068C3181B78DBB2384803602B4805883B78013303800120294B1860146004231E4373071DD5244B1B882A4A12886B
:4015000093420BD2274A1268D3181B78DBB22B4A13601E4A13880133138002E0FF22274B1A60274B1B680F221340022BE4D10E3A244B1A60E3061AD5002903D10D4B1C602D
:40154000124B1D88104B1B78AB4205D00D4B1B78DB0703D4022302E0022300E00A231C40074B1A7814431C700022064B1A70F8BDB0010020400F0640000E06400000064007
:40158000A00400209C040020980400209A040020880F0640C00F0640FF0F0000400306409E040020A4040020A804002004030640FFFFFEFF0402064002000100400206402F
:4015C00008020640800F064008B500F06DF808BD08B500F01DF808BD08B5044A1368802109060B431360FFF7EFFF08BD0000074008B5064B1B78002B04D1FFF7E9FF0122DF
:40160000024B1A70FFF7E8FF08BDC046B401002010B5134A134B1A600023134A13600121124A1160124A13480260072412480460124803601248016012490A60124A13606C
:40164000124A1360124A1360124A1360124A1360124A1360124A13601268124B1A8010BD0B000002000007404000074048000740070000800003074004030740100307406F
:40168000440007400002074004020740880E0740C80E0740480F0740080F0740C80F0740880F0740B6010020064A1168064B0B40902109040B431360044B1A88044B1A60A2
:4016C0007047C04600000140FFFF0FFFB6010020880F074038B5051C002402E000F0D8FB0134285D0028F9D138BDC0461F2318401E3B8340181C014B1860704700E100E087
:401700001F2318401E3B8340181C014B1860704780E100E001BE704738B5041C0D1C0F2802D90020FFF7F6FFA40080239B059C4664442068256038BD38B5041C0D1C1F284A
:4017400002D90020FFF7E6FFA400034B9C4664442068256038BDC0464000002070B5041C0E1E032E02D90020FFF7D4FF1F2C02D90020FFF7CFFF03252540ED00063500F09A
:401780007DFBA408A400074B9C46644423680322AA409343AE40351C1D43256000F072FB70BDC04600E400E008B5034B1B7A584300F05AFB08BDC046D0000020F0B5574620
:4017C0004E46C0B483B0041C00F058FB0190E71E2D2F74D83F4B1B78DBB2A34208D33E4B1B78DBB29A463D4B1B78DBB2994631E03B4B1B78DBB2A34208D33A4B1B78DBB277
:401800009A46394B1B78DBB2994623E0374B1B78DBB2A34208D3364B1B78DBB29A46354B1B78DBB2994615E0334B1B78DBB2A34208D3324B1B78DBB29A46314B1B78DBB274
:40184000994607E02F4B1B78DBB29A462E4B1B78DBB299462D4BDE5D2F2E09D92A2C07D919222B4B1A60052000F0FEFA192503E0274B1D683F231D40AE4206D2234BDA5D0C
:40188000234B1A60052000F0EFFA1F4B9C4664442378DBB21F4A13601F4B52461A601F4B4A461A600520FFF77FFFAE420AD9174BDA5D174B1A60052000F0D6FA02E0002092
:4018C000FFF728FF019800F0DDFA03B00CBC91469A46F0BDC0F1FF0FC1F1FF0FC2F1FF0FC3F1FF0FC4F1FF0FC5F1FF0FC6F1FF0FC7F1FF0FC8F1FF0FC9F1FF0FCAF1FF0F20
:40190000CBF1FF0FCCF1FF0FCDF1FF0F682500002CFF0B4028FF0B401CFF0B4020FF0B40034B1868C0231B02184000D00120704700010B4008B500F0A1FA044A1368C021F5
:4019400009020B43136000F09DFA08BD00010B4010B500F093FA08490A68084B1A408024E40122430A600A6813408022120213430B6000F087FA10BD00010B40FF3FFFFFF7
:4019800070B5061C00F07AFA041CFFF7C9FF002803D0FFF7DDFF012500E000250848331C0340084A106808490840184310601368012D01D1FFF7BEFF201C00F063FA70BDB2
:4019C0000404040010020B40FBFBFBFF10B5244B1B685B0715D5234B1B685B070ED5224BD969042001401F4C22688A432260DA698243DA611B69002B00D098470420FFF742
:401A0000BFFF174B1B685B0518D5164B1B685B0510D5154BD9698022D2001140114802688A430260D969114A0A40DA615B69002B00D098478020C000FFF7A2FF084B1B68A7
:401A40005B030CD5074B1B685B0304D5064B9B69002B00D098478020C002FFF791FF10BD10020B40E0000020B8010020FFFBFFFF04490A68BF231A4080017F3B1840104328
:401A80000860704700010440024B18684006C00F7047C0460401044004490A68F7231A40C000EF3B184010430860704700020440114B1B683B2B1BD80F4948685A1C0A608D
:401AC0000201121A9200D3189B000C4A9B580C4A1268D3400B4A12681340D8B20A4A1070180AC0B210701B0C8B60DBB2137002E01122064B1A707047D8010020AC0400204D
:401B0000800700207C07002043000F4070000F402122164B1A70164A536801335360022B1FD8DBB2134A1370114A51680B015B1A1B0111495B5811490968CB4010490968EB
:401B40000B40D8B20F490870180AC0B208701B0CD360DBB20B70012313600922034B1A7002E00122084B1A607047C04670000F40D801002071000F40AC040020800700203A
:401B80007C07002043000F4084070020002804D00023114A5360114A13700F48426813019B1A1B010E4A9B580E4A1268D3400E4A12681340D9B20D4A1170190AC9B211707D
:401BC0001B0CDBB21370012303601922084B1A700022084B1A607047D801002071000F40AC040020800700207C07002043000F4070000F4084070020044B1868002803D0D0
:401C00000022034B1A7001207047C0468407002070000F4010B500210CE00B015B1A9B009B189B00054C1851013200E000223B2AF3D901310229F9D910BDC046AC04002034
:401C400000280CDB00290ADB3B2808DC022906DC0B01591A890008188000014BC2507047AC04002002280FD002D8012805D020E0032810D0042815D01BE0114A114B1A603D
:401C80000122114B1A601AE0104A0E4B1A6002220D4B1A6013E00E4A0A4B1A6003220A4B1A600CE00B4A074B1A600422064B1A6005E0094A034B1A600022034B1A60704761
:401CC0007F7F7F007C070020800700203F3F3F001F1F1F000F0F0F00FFFFFF0010B50322144B1A703832144B1A700B3A134B1A70143A134B1A70134C012323701820FFF70C
:401D000089FF00232370002000F026F80020FFF7A9FF0D4B1B7D002B08D101220A4B1A750A4800F061F80A4800F090F80122094B1A6010BD90000F4040000F4020000F407E
:401D400030000F4070000F40D8010020111B0000B11A00008407002000280CD10C4A0D4B1A6005220C4B1A6002320C4B1A6019320B4B1A600BE0064A064B1A600522064BC7
:401D80001A600232054B1A601932054B1A607047982500009007002088070020940700208C070020014B18647047C0460000002010B5041C00F062F8044A1368C0218B4302
:401DC000A4011C43146000F05DF810BD00E400E00122014B1A60704700E100E00122014B1A60704780E100E010B5041CFFF7F6FF201CFFF7D7FF0320FFF7DAFFFFF7E8FFAC
:401E000010BDC046014B98647047C0460000002010B5041C00F032F8044A1168044B0B40A4051C43146000F02DF810BD00E400E0FFFF3FFF0422014B1A60704700E100E088
:401E40000422014B1A60704780E100E010B5041CFFF7F6FF201CFFF7D5FF0320FFF7D8FFFFF7E8FF10BDC0460230800804D0C0460138FDD1C046C046C0467047EFF3108032
:401E800072B6704780F310887047C046C046C046044B1B680F221340082BF9D0024B18607047C046080207404002074003460B437FD4002243088B4274D303098B425FD34B
:401EC000030A8B4244D3030B8B4228D3030C8B420DD3FF22090212BA030C8B4202D31212090265D0030B8B4219D300E0090AC30B8B4201D3CB03C01A5241830B8B4201D3BF
:401F00008B03C01A5241430B8B4201D34B03C01A5241030B8B4201D30B03C01A5241C30A8B4201D3CB02C01A5241830A8B4201D38B02C01A5241430A8B4201D34B02C01AED
:401F40005241030A8B4201D30B02C01A5241CDD2C3098B4201D3CB01C01A524183098B4201D38B01C01A524143098B4201D34B01C01A524103098B4201D30B01C01A52416F
:401F8000C3088B4201D3CB00C01A524183088B4201D38B00C01A524143088B4201D34B00C01A5241411A00D201465241104670475DE0CA0F00D04942031000D34042534035
:401FC00000229C4603098B422DD3030A8B4212D3FC22890112BA030A8B420CD3890192118B4208D3890192118B4204D389013AD0921100E08909C3098B4201D3CB01C01AB6
:40200000524183098B4201D38B01C01A524143098B4201D34B01C01A524103098B4201D30B01C01A5241C3088B4201D3CB00C01A524183088B4201D38B00C01A5241D9D2A8
:4020400043088B4201D34B00C01A5241411A00D20146634652415B10104601D34042002B00D54942704763465B1000D3404201B5002000F00BF802BD0029F8D003B5FFF723
:4020800015FF0EBC4243891A1847C0467047C046014B18687047C046440100200E4B70B500251E1C0D4CE41AA410A54204D0AB00F35898470135F8E700F060FB084B0025BA
:4020C0001E1C084CE41AA410A54204D0AB00F35898470135F8E770BD88270000882700008827000090270000031C8218934202D019700133FAE7704738B5104B051C1C6868
:40210000A36B002B15D1182000F060F80C4BA06303800C4B012243800B4B83800B4BC3800B4B038105234381063383810023026143610022A36B1D615A6138BD4401002004
:402140000E330000CDABFFFF341200006DE6FFFFECDEFFFF154B10B51C68A36B002B15D1182000F033F8124BA0630380114B01224380114B8380114BC380114B0381052303
:40218000438106338381002302614361A46B0D4A206961690C4B00F08DF80122002380185941206161614800400810BD440100200E330000CDABFFFF341200006DE6FFFFA4
:4021C000ECDEFFFF2D7F954C2DF4515808B5034B011C186800F004F808BDC04644010020032370B5CC1C9C430834051C0C2C01D20C2405E0002C03DA0C2300202B6042E068
:402200008C42F9D3204A1368101C191C002913D00A68121B0DD40B2A02D90A608B181FE08B4202D15A6802601BE04A685A600B1C17E00B1C4968E9E7144E3368002B03D129
:40224000281C00F025F83060281C211C00F020F8031C421CD0D00322C61C964386420AD11C60181C07210B301A1D8843821A0AD05142995007E0311A281C00F009F8431C87
:40228000BAD0331CECE770BDF4010020F001002038B50023064C051C081C2360FEF74CFF431C03D12368002B00D02B6038BDC04698070020F0B54F46464605042D0C2C1C67
:4022C000C0B41704160C3F0C9946030C7C4375435F4373437D19260CAD199C46AF4203D980235B029846C4444B465143434324042E0C240C2D0466442C1959188919201C56
:402300000CBC90469946F0BD00000000880300005A040000BC040000A4050000B40600005C07000004080000AA08000048656C6C6F20776F726C640000300F400004004047
:402340000F40000404000F403C300F4027310F4042320F4040330F4006400F4005410F4002420F4006430F4002600F40001810182014300C0240040405020C010F01124159
:402380001403150216381704180819061A261B081E101F012240250429082B062F013020310132403407350E361838203E043F01402545054721483149FF4AFF4BFF4DA087
:4023C000580459045A045B045C995D095F016040614062C064C066C084018A018C019C01A601B601BE40D804DB04DF0100C40102071908010A7A0E011080170418A4198249
:402400001A021F80210123082801292831043210334038484004480249085006520269406A406B406E016F3D70A0C0EDC28FC428CA0ECC0ECE0AD004D20804010A011101BA
:40244000170118011C012101220125012901360137013E403F40580459045F0184A4865A8708886D89578A128B088E4992899357964999029B209D049E499F90A021A1012E
:40248000A410A602A9A0AB5FAE21B0C0B238B30FB407B530B7C0B820BA02BBA0C035C5CBC6E0C80BC9FFCAFFCBFFD804D904DA04DB04DC99DD09DF01E2C0E440E5010014B2
:4024C00002020620070809800A600E0510E0114013401701181419211A581F4021842210268029212E252F28318032123709381039084114431048C04984511058405B10AA
:40250000620463408040820487408A80908091409201961899809B099D24A020A202A328A440A810AD01AF80C067C2CDC41DCAE5CCCDCE06D002D208D60CD803E0086302CA
:402540006F027180D640DA80DC20AB02AD80AF01EA20EE506208D802540186088801A608D604E00102011101030405060708090A0B0C0E0F101112131415161718191B1C21
:402580001D1E1F2021222325262728292A2B2E2F3031323334350000000000000000005F00000007000700147F147F14242A7F2A1223130864623649552250000503000095
:4025C000001C2241000041221C00082A1C2A0808083E080800503000000808080808006060000020100804023E5149453E00427F400042615149462141454B311814127F9A
:402600001027454545393C4A49493001710905033649494936064949291E003636000000563600000008142241141414141441221408000201510906324979413E7E11119A
:40264000117E7F494949363E414141227F4141221C7F494949417F090901013E414151327F0808087F00417F41002040413F017F081422417F404040407F0204027F7F046A
:4026800008107F3E4141413E7F090909063E4151215E7F09192946464949493101017F01013F4040403F1F2040201F7F2018207F631408146303047804036151494543001F
:4026C000007F4141020408102041417F000004020102044040404040000102040020545454787F484444383844444420384444487F3854545418087E090102081454543CA2
:402700007F0804047800447D40002040443D00007F10284400417F40007C041804787C0804047838444444387C14141408081414187C7C080404084854545420043F44401E
:40274000203C4040207C1C2040201C3C4030403C44281028440C5050503C4464544C44000836410000007F0000004136080008082A1C08081C2A080843000000F8B5C04626
:40278000F8BC08BC9E4670473D020000B5110000F8B5C046F8BC08BC9E46704715020000B0270000C8000020800000005806000000000000A00700200000C05D80BB000068
:4027C00030000000006CDC020404040000000000000000000000000000000000000000000000000000000000000000007827000000000000000000000000000000000000B4
:402800000000000000000000000000000000000000000000000000000000000000000000000000000000000000000000E40000200000000000000000000000000000000094
:402840000000000000000000000000000000000000000000000000000000000000000000000000000000000000000000000000000000000000000000000000000000000058
:402880000000000000000000000000000000000000000000000000000000000000000000000000000000000000000000000000000000000000000000000000000000000018
:4028C00000000000000000000000000000000000000000000000000000000000000000000000000000000000000000000000000000000000000000000000000000000000D8
:402900000000000000000000000000000000000000000000000000000000000000000000000000000000000000000000000000000000000000000000000000000000000097
:0200000490303A
:020000001822C4
:0200000490402A
:200000000000000000000000000000000000000000000000000000000000000000000000E0
:0200000490501A
:0C000000000204C81193110104D429B5BA
:0200000490600A
:0100000001FE
:00000001FF