:400000000010002011000000C5130000C513000008B501F0F3F9C04638B5144C23688025ED022B432360302001F010FD104A114B1A601022104B1A601032104B1A60802294
:4000400012060F4B1A6025600E4A0F4B1A600F4A0F4B1A6009200F4901F0B6FC092001F08DFC00220C4B1A6038BDC04600010B400600008004010B40080202400C02024043
:4000800008010B40050000800000024022000080400002405D1C00000C020B4010B572B601223C4B1A70002410E03B4863001A195200821891881B195B001A5AC31858881E
:4000C0000004104301F0FCF90134E4B2012CECD93149081C0C30343101F0D8F92F4A304B1A60C02292042F4B1A602F4A2F4B1A60EE222F4B1A6099231B042E4A1360A8212B
:4001000049052D4A11602D4A13602D4A1360802189052C4A11602C4A1360C02292022B4B1A6005222A4B1A6001322A4B1A602A4B1978043A0A431A70284802783C218A43E9
:4001400028390A430270197816220A431A70A022234B1A60234A244B1A602022234B1A60C0225203224B1A604022224B1A60224A224B1A600122224B1A60224A224B1A607E
:400180000322224B1A602132214B1A60FFF744FF10BDC0461C700F40D025000000009930000001400800014003EE00000C0001401000014000500F4008500F4010500F4047
:4001C00020500F4028500F4030500F4038500F402000004000800F4000700F4001700F40000004400010C30008000440180004400801044000020440000C18000802044061
:4002000000030440860D000008030440000404400804044010B5064C2378002B07D1054B002B02D0044800E000BF0123237010BD48010020000000009825000008B5084B56
:40024000002B03D00748084900E000BF07480368002B00D108BD064B002BFBD09847F9E700000000982500004C010020C800002000000000024A1368013313607047C04683
:4002800064010020F0B557464E464546E0B462B601F06CFE002001F02DFE002001F002FE012001F0BBFD01F0EFFD0028FBD0012001F0B4FDE34C201C0021802202F05CF833
:4002C000E14B1C600025C823E5540133E5540133E5543533E55401F00FF980214900081C221C01F08FF901F0CBFAD84801F03AFB0F20D74901F058FBD64AD74B5360D74930
:400300000B6A1B021B0AC020000603430B62956007231360012001F0F3FC002600239A46CF4B1B680A3BAB4200DCC5E3CC4B1D68C54B1A68C823D35C012B04D100F0F2FF34
:40034000002001F0F1FCC04B1B68FD229A5C012A0CD1FD32985CC0B201F048F9BA4B1A680021FD23D154012001F0DEFC00249BE32C236343BB4AD318DB78092B00D992E3D8
:400380009B00B94AD3589F462C236343B54AD318DB7F012B38D12B336343D218937DD17D09021943081C117E09040143537E1B060B431F1C131CD07B127C12020243111C61
:4003C0005A7C083312040A439B7A1B061343FB18A34A1268934200DB65E32C236343A14AD7180022FA777979BB791B020B431A1CF8790004031C1343387A000618433979B3
:40040000BA7B00F07DFB4EE3964A2C236343995C4900D3185A789B781B021343894A525E1BB29A4200DC3EE38D4B1A682C2363438C49CB189A75100AD875100C1876120E28
:400440005A760122DA772EE3864A2C236343995C4900D3185A789B781B021343794A525E1BB29A4200DC1EE32C2363437D4AD718397908239946B9444B469A79002000F0D0
:400480003FFB4B46587939797A79BB791B021343FA79120413433A7A12061A4301F018FD01E32C2363436F4AD31819796C4B5B181B79002B23D16A4A10688B00D3189860C0
:4004C000684A2C236343985C4000D3185A789B781B0213435B4A125E1BB29A4206DD2C206043604BC01800F08FFCDCE22C2363435C4AD3189A7B002000F002FBD3E2594A92
:400500002C236343985C4000D3185A789B781B0213434C4A125E1BB29A4223DD504F8B00FB189B6898462C2363434E4AD318D87B1A7C120210435A7C0833120402439B7A39
:400540001B06134343443A68934200DBABE23A68890079188A602C206043424BC01800F053FCA0E23E4B591800230B719BE22C2363433C4AD318DB7F012B42D12B336343CA
:40058000D218937DD17D09021943081C117E09040143537E1B060B431F1C131CD07B127C12020243111C5A7C083312040A439B7A1B061343FB182A4A1268934200DB72E27A
:4005C0002C236343274AD7180022FA77397908239846B84443469A79002000F091FA7979BB791B020B431A1CF8790004031C1343387A00061843397943465A7900F080FAE9
:4006000051E2184A2C236343995C4900D3185A789B781B0213430B4A525E1BB29A4200DC41E20F4B1A682C2363430E49CB189A75100AD875100C1876120E5A760122DA7773
:4006400031E2C046F8010020F8020020C42500007502000010E000E07FBB000000ED00E064010020FC0200209C250000E74A2C236343995C4900D3185A789B781B021343EC
:40068000E34A525E1BB29A4232DD2C236343DF4AD218937DD17D09021943081C117E09040143537E1B060B431F1C131CD07B127C12020243111C5A7C083312040A439B7A42
:4006C0001B061343FB18D34A1268934200DBEAE1D04B1B682C206043CC4A10188375190AC175190C01761B0E437600F053FBDAE12C236343C54AD31819799A7B002000F025
:40070000FFF9D0E1C14A2C236343995C4900D3185A789B781B021343BD4A525E1BB29A4232DD2C236343B94AD218937DD17D09021943081C117E09040143537E1B060B4335
:400740001F1C131CD07B127C12020243111C5A7C083312040A439B7A1B061343FB18AD4A1268934200DB9EE1AA4B1B682C206043A64A10188375190AC175190C01761B0E68
:40078000437600F0CDF98EE12C2363439F4AD31819799A7B002000F0B3F984E19B4A2C236343995C4900D3185A789B781B021343974A525E1BB29A4232DD2C236343934A54
:4007C000D218937DD17D09021943081C117E09040143537E1B060B439C46131CD07B127C12020243111C5A7C083312040A439B7A1B0613436344874A1268934200DB52E1C1
:40080000844B1B682C206043804A10188375190AC175190C01761B0E437600F0C7F942E12C236343794AD31819799A7B002000F067F938E1754A2C236343995C4900D31833
:400840005A789B781B021343714A525E1BB29A426ADD2C2363436D4AD318DB7F012B16D12B336343D3185A7D511C5975103352B21B795BB29A4200D015E12C20031C634325
:400880006248C0180022427500F0CCFB0BE12C2363435E4AD218131C907DD17D09020843117E1033090401435B7A1B060B439C46131CD07B127C12020243111C5A7C0833EB
:4008C00012040A439B7A1B0613436344514A1268934200DBE7E04F4B1B682C2262434B498846904442469375190AD175190C11761B0E537601F076FD4346597B01F004FD46
:40090000012900D0CFE001F06DFD032101F0FCFC2C20031C63433D48C018033101750022427500F07FFBBEE02C236343374AD31819799A7B002000F0E3F8B4E0334A2C235A
:400940006343995C4900D3185A789B781B0213432F4A525E1BB29A424DDD2C2363432B4AD318DB7F012B05D12C206043801800F0A3F998E02C236343244AD218131C907D8F
:40098000D17D09020843117E1033090401435B7A1B060B439C46131CD07B127C12020243111C5A7C083312040A439B7A1B0613436344184A1268934275DA164B1B682C22E3
:4009C000624312498846904442469375190AD175190C11761B0E537601F004FD4346597B01F092FC01295ED12C206043074BC01800F062F957E02C236343044AD31819793C
:400A00009A7B002000F07CF84DE0C046FC020020F801002064010020364A2C236343995C4900D3185A789B781B021343324A525E1BB29A4229DD2C2363432E4AD318DB7FAB
:400A4000012B15D12B336343D3185A7D511C5975103352B21B795BB29A4224D12C20031C63432448C0180022427500F009FC1AE0002B18D12C3363431E4AD3180122DA77AD
:400A800000225A7505321A750DE02C236343194A90469844434619799A7B002000F030F843460022DA770134144B5B699C4200DA5EE4012001F0B2F9104B1B68323BB342D5
:400AC00001DD0E4B1E680D4B1B68F53BFF3B534500DC25E4094B1B689A4601F01DF9002803D0002001F00CF91AE4012001F008F916E4C046FC020020F801002064010020DB
:400B0000F8B5071C0E1C151C002405E0201C311C3A1C01F0DDF90134A542F7DCF8BDC04670B5051C0179827B0020FFF7E9FFA97EEB7E1B020B431A1C2E7F3604331C1343B9
:400B40006E7F36061E4310E029796C79AB791B022343181CEA791204131C03432A7A12061A43301C01F0B4F90336AB7BB342EBDCA87EEA7E120202432B7F1B0413431A1C51
:400B80006B7F1B0613430133AB76190A2A1CE976190C2977190E69771A32022B05DD131C0022AA765A709A70DA7070BD70B5041C417983791B020B431A1CC5792D042B1C82
:400BC0001343057A2D061D432E042B02B60E36029B0E1B0433432E06B60E1E430179827B0020FFF78DFFA17EE37E1B020B431A1C207F0004031C1343607F000618430CD12C
:400C000021792A1C01F064F921790120321C01F05FF901222023E25438E0A37B013B98420ED12179181C2A1C01F052F9A07B02382179321C01F04CF9FF222023E25425E00B
:400C400021792A1C01F044F9A17EE37E1B020B431A1C207F0004031C1343607F0006184321790138321C01F033F9A17EE37E1B020B431A1C207F0004031C1343607F000691
:400C8000184321790130321C01F022F9A07EE27E12020243237F1B0413431A1C637F1B0613432022A2569B18A376190AE176190C21771B0E637770BD10B5041CC37F002B78
:400CC00010D10133C377204B186801F05DFB01F089FB062101F018FB03312A23E15400220133E25401F07EFBC20F831801201840801A012810D16179A3791B020B431A1C05
:400D0000E0790004031C1343207A000618432179A27BFFF7F5FE04E02179A27B0020FFF7EFFE2B22A35C591CA1545BB2013AA2565200934206D10023E3772179A27B002060
:400D4000FFF7DEFE10BDC04664010020C343DBB2542B07D89800181AFF3000025A00D318184315E0A92B09D8553BDAB25000801800049300D21AFF32104309E05633DAB20A
:400D80005000801800029300D21AFF32120410437047C04670B5051C00240BE02E79A87E0019C0B2FFF7D2FF021C201C311C01F08FF80134AB7BA342F0DCA87EEA7E120232
:400DC00002432B7F1B0413431A1C6B7F1B0613430133AB76190AE976190C29771B0E6B7770BDC04610B50404240E0C60FF21014019600002000E106010BDC0460002090477
:400E000001431143081C7047F0B557464E464546E0B486B0041C417983791B020B431A1CC0790004031C1343207A0006184305A901AA03ABFFF7D6FF617AA37A1B020B43BB
:400E40001A1CE07A0004031C1343207B0006184304A96A4602ABFFF7C5FF059B049A934201DD05920493039B029A934201DD03920293019B009A934201DD01920093049DC3
:400E8000059EAB1B9846039B9C46029B62469A1A019F009BDB1B9A4621796048405C00282CD1013081465D484B4643544346D817000F404400115A4B98464900C8522179FD
:400EC000D017000F82181211490041440A8122795346D917090F0B1C53441B1152004244138223795B0043441E8323795B00434462461A8423795B0043441F852779484A1C
:400F000079005018008B8A5A01B213B2CB189D4209DC434A7B00D3181D8323795B00995A4942995210E09E4209DB3D4A7B00D3181E8323795B00995A4942995204E07B004E
:400F40003749CB1882181A8323795A0034498A18158C118928B20AB28218029882420ADB2F495B00CA18108423795B00CB181A8952421A8112E0039882420ADC28495B001C
:400F8000CA18108423795B00CB181A8952421A8104E05B00224AD3186918198423795A001F498A18158D118A28B20AB28218009882420ADB1A495B00CA18108523795B0081
:400FC000CB181A8A52421A8212E0019882420ADC13495B00CA18108523795B00CB181A8A52421A8204E05B000D4AD3186918198525796B000A4AD3182022985E2822995EC8
:4010000018229A5EFFF7FAFEA27B291CFFF778FD06B01CBC90469946A246F0BD680100207C010020F0B557464E464546E0B484B0041C877E2B23C65C013BC55C00230393F1
:4010400002930193C37F002B2DD10133C3778B4B186801F099F901F0C5F9C517AB0FC01803252840C51A0535EDB22A23E5540022063BE2540133E2540333E2540133E254D1
:40108000033BE2540133E25401F0ACF9A17B01F03BF9CFB2FF231940A1760022E2762277090E617700266179A3791B020B431A1CE0790004031C1343207A0006184303A930
:4010C00001AA02ABFFF78EFE6DB20398291C01F035F881460298291C01F030F880460198291C01F02BF8824673B26A1E934207DB4A4652429146424652429046424292460D
:401100000136F6B26D00AB4228DA2421635C2522A05C000203431B041B144B449BB263541B0AA3540431635C0432A05C000203431B041B1443449BB263541B0AA35426233C
:401140009C46E25C0139635C1B0213431B041B14534498B26346E054000A60542423E25C0133E35C1B0213431BB2FF2B06DD012252422423E25400220133E2542823E25C8B
:401180000133E35C1B0213431BB2FF2B06DD012252422823E25400220133E2542623E25C0133E35C1B0213431BB2FF2B06DD012252422623E25400220133E2542423E25C1D
:4011C0000133E35C1B0213431BB2002B04DA00222423E2540133E2542823E25C0133E35C1B0213431BB2002B04DA00222823E2540133E2542623E25C0133E35C1B0213436B
:401200001BB2002B04DA00222623E2540133E2542179A27B0020FFF773FC237998462423E35C2522A05C000218432623E35C0232A15C090219432823E35C0232A25C120201
:401240001A4300B209B212B2FFF7D8FD021C381C414600F03DFE73B29D4207D10023E37763752179A27B0020FFF74AFC2B23E65404B01CBC90469946A246F0BD64010020CA
:4012800030B585B0041C417983791B020B431A1CC0790004031C1343207A0006184303A902AA01ABFFF79EFD039B002B0BDD01F099F80399CD0F6D186D10491B01F024F83D
:4012C0006D18039501E000230393029B002B0BDD01F088F80299CD0F6D186D10491B01F013F86D18029501E000230293019B002B0BDD01F077F80199CD0F6D186D10491B9D
:4013000001F002F86D18019501E00023019303980299019AFFF772FD2179A27BFFF7F0FB05B030BD0022244B1A60244B1B68CA215A54C939C932995436E0C8229A5C002AFF
:4013400003D10021C932995434E0CA229A5C002AF3D000230EE0184A11682C224A4318495218191C80311548006841180978D1540133DBB2122BEED913230AE00E4A1168BB
:401380002C224A430E495218D218002111700133DBB22B2BF2D9084A136801331360074B1A680021CA23D154044B1B68C8229A5C012ACAD07047C04678010020F8020020C1
:4013C000FC020020FEE7C04608B5031C094A1068C318094A9A1A802149008A4202DC054A136005E000F09CFF0C2303600120404208BDC046CC000020B807002070B50F4E48
:401400000F4D13E029686B68AC68002202E001C901C30432A242FAD1E868002202E0002102C304328242FAD11035013E002EE9D100F07CFFFEF726FFFEE7C0460100000092
:40144000382A000008B500230AE0032B03D89A000A49505800E00A4899000A4A885001332F2BF2D9FEF71AFE0022074B1A608022D205116801230B43136008BD00000000BB
:40148000C513000000000020C0000020F0B50025002711E0BB00C658F3B2FF22964308E06A008A181478A419527822700135013BDBB2002BF4D10137092FEBD9F0BDC0468B
:4014C00008B50A1C002100F057FF08BD08B50A2000F054FA08BDC04608B500F01DF808BD08B5044A1368802109060B431360FFF7EDFF08BD0000064008B5064B1B78002BB6
:4015000004D1FFF7E9FF0122024B1A70FFF7E8FF08BDC046AC01002010B500241D4B1C601D4A1E4B1A601E4A11680C230B4313601C4B1D4A13601D4A14601D491D4A116047
:401540001D4A136002221D4B1A600A2000F020FA0A20032100F04AFA0A20194900F034FA184B1C60184B1C603222FF32174B1A60174B1C602E3AFF3A164B1A60164B1C60D5
:40158000164B1C70164B1C70164B1C80164B00221A7010BD0000064000F8004060000640700006400701008000030640040306401000FE0010030640000206400402064087
:4015C00035160000C80E0640880E0640480F0640080F0640C80F0640880F0640B8040020BC040020B6040020B4040020044A1368FF218B4340000840184310607047C0467F
:401600001003064070B5061C0D1C141E0BD00A2000F0BEF9044B1C60044B1E80044B1D800A2000F0ABF970BDC0040020C4040020BA040020F8B5724B1B68002B00D0984703
:40164000704B1C68704B1E680223FF331C4232D06E4A13685B005B081360630619D56C4A117810230B4313706A4B1B78DB070BD5694B1A78694B1B889A420AD0644A1178A1
:4016800008230B43137004E0614A117802230B4313700023624A13600421624A11606249584A11605B4A1370584A1368802109060B431360A3E0330744D55C4B1D68554B86
:4016C0001B78012B04D0002B16D0032B28D032E0524B1B88564A1288934209D2554A1268D318EAB21A704D4A13880133138025E00322484B1A7021E04F4B1B88AB4207D96F
:40170000454B1D70454B1D800122424B1A7015E0414B1A78414B1A8003223E4B1A700DE0464B1A68802149020A431A601968444A0A401A6002E0002000F034F90422394B65
:401740001A6000E00025202121401BD02D4A402313603C4B3C481860022018602E4F3B7834480068C3181B78DBB2384803602B4805883B78013303800120294B1860146016
:4017800004231E4373071DD5244B1B882A4A128893420BD2274A1268D3181B78DBB22B4A13601E4A13880133138002E0FF22274B1A60274B1B680F221340022BE4D10E3A29
:4017C000244B1A60E3061AD5002903D10D4B1C60124B1D88104B1B78AB4205D00D4B1B78DB0703D4022302E0022300E00A231C40074B1A7814431C700022064B1A70F8BDF3
:40180000B0010020400F0640000E064000000640BC040020B8040020B4040020B6040020880F0640C00F0640FF0F000040030640BA040020C0040020C404002004030640BA
:40184000FFFFFEFF04020640020001004002064008020640800F064008B500F06DF808BD08B500F01DF808BD08B5044A1368802109060B431360FFF7EFFF08BD000007402C
:4018800008B5064B1B78002B04D1FFF7E9FF0122024B1A70FFF7E8FF08BDC046B401002010B5134A134B1A600023134A13600121124A1160124A1348026007241248046054
:4018C000124803601248016012490A60124A1360124A1360124A1360124A1360124A1360124A1360124A13601268124B1A8010BD0B0000020000074040000740480007405A
:4019000007000080000307400403074010030740440007400002074004020740880E0740C80E0740480F0740080F0740C80F0740880F0740B6010020064A1168064B0B40DF
:40194000902109040B431360044B1A88044B1A607047C04600000140FFFF0FFFB6010020880F074038B5051C002402E000F0D8FB0134285D0028F9D138BDC0461F23184057
:401980001E3B8340181C014B1860704700E100E01F2318401E3B8340181C014B1860704780E100E001BE704738B5041C0D1C0F2802D90020FFF7F6FFA40080239B059C4663
:4019C00064442068256038BD38B5041C0D1C1F2802D90020FFF7E6FFA400034B9C4664442068256038BDC0464000002070B5041C0E1E032E02D90020FFF7D4FF1F2C02D97A
:401A00000020FFF7CFFF03252540ED00063500F07DFBA408A400074B9C46644423680322AA409343AE40351C1D43256000F072FB70BDC04600E400E008B5034B1B7A584356
:401A400000F05AFB08BDC046D0000020F0B557464E46C0B483B0041C00F058FB0190E71E2D2F74D83F4B1B78DBB2A34208D33E4B1B78DBB29A463D4B1B78DBB2994631E0BD
:401A80003B4B1B78DBB2A34208D33A4B1B78DBB29A46394B1B78DBB2994623E0374B1B78DBB2A34208D3364B1B78DBB29A46354B1B78DBB2994615E0334B1B78DBB2A342DB
:401AC00008D3324B1B78DBB29A46314B1B78DBB2994607E02F4B1B78DBB29A462E4B1B78DBB299462D4BDE5D2F2E09D92A2C07D919222B4B1A60052000F0FEFA192503E0B9
:401B0000274B1D683F231D40AE4206D2234BDA5D234B1A60052000F0EFFA1F4B9C4664442378DBB21F4A13601F4B52461A601F4B4A461A600520FFF77FFFAE420AD9174BE6
:401B4000DA5D174B1A60052000F0D6FA02E00020FFF728FF019800F0DDFA03B00CBC91469A46F0BDC0F1FF0FC1F1FF0FC2F1FF0FC3F1FF0FC4F1FF0FC5F1FF0FC6F1FF0FC1
:401B8000C7F1FF0FC8F1FF0FC9F1FF0FCAF1FF0FCBF1FF0FCCF1FF0FCDF1FF0F002800002CFF0B4028FF0B401CFF0B4020FF0B40034B1868C0231B02184000D001207047F8
:401BC00000010B4008B500F0A1FA044A1368C02109020B43136000F09DFA08BD00010B4010B500F093FA08490A68084B1A408024E40122430A600A68134080221202134368
:401C00000B6000F087FA10BD00010B40FF3FFFFF70B5061C00F07AFA041CFFF7C9FF002803D0FFF7DDFF012500E000250848331C0340084A10680849084018431060136867
:401C4000012D01D1FFF7BEFF201C00F063FA70BD0404040010020B40FBFBFBFF10B5244B1B685B0715D5234B1B685B070ED5224BD969042001401F4C22688A432260DA69CE
:401C80008243DA611B69002B00D098470420FFF7BFFF174B1B685B0518D5164B1B685B0510D5154BD9698022D2001140114802688A430260D969114A0A40DA615B69002B29
:401CC00000D098478020C000FFF7A2FF084B1B685B030CD5074B1B685B0304D5064B9B69002B00D098478020C002FFF791FF10BD10020B40E0000020B8010020FFFBFFFF0B
:401D000004490A68BF231A4080017F3B184010430860704700010440024B18684006C00F7047C0460401044004490A68F7231A40C000EF3B18401043086070470002044049
:401D4000114B1B683B2B1BD80F4948685A1C0A600201121A9200D3189B000C4A9B580C4A1268D3400B4A12681340D8B20A4A1070180AC0B210701B0C8B60DBB2137002E038
:401D80001122064B1A707047D8010020C80400209C0700209807002043000F4070000F402122164B1A70164A536801335360022B1FD8DBB2134A1370114A51680B015B1A50
:401DC0001B0111495B5811490968CB40104909680B40D8B20F490870180AC0B208701B0CD360DBB20B70012313600922034B1A7002E00122084B1A607047C04670000F401F
:401E0000D801002071000F40C80400209C0700209807002043000F40A0070020002804D00023114A5360114A13700F48426813019B1A1B010E4A9B580E4A1268D3400E4AA9
:401E400012681340D9B20D4A1170190AC9B211701B0CDBB21370012303601922084B1A700022084B1A607047D801002071000F40C80400209C0700209807002043000F40DE
:401E800070000F40A0070020044B1868002803D00022034B1A7001207047C046A007002070000F4010B500210CE00B015B1A9B009B189B00054C1851013200E000223B2AE4
:401EC000F3D901310229F9D910BDC046C804002000280CDB00290ADB3B2808DC022906DC0B01591A890008188000014BC2507047C804002002280FD002D8012805D020E02D
:401F0000032810D0042815D01BE0114A114B1A600122114B1A601AE0104A0E4B1A6002220D4B1A6013E00E4A0A4B1A6003220A4B1A600CE00B4A074B1A600422064B1A6037
:401F400005E0094A034B1A600022034B1A6070477F7F7F00980700209C0700203F3F3F001F1F1F000F0F0F00FFFFFF0010B50322144B1A703832144B1A700B3A134B1A702A
:401F8000143A134B1A70134C012323701820FFF789FF00232370002000F026F80020FFF7A9FF0D4B1B7D002B08D101220A4B1A750A4800F061F80A4800F090F80122094BA6
:401FC0001A6010BD90000F4040000F4020000F4030000F4070000F40D8010020A11D0000411D0000A007002000280CD10C4A0D4B1A6005220C4B1A6002320C4B1A6019322E
:402000000B4B1A600BE0064A064B1A600522064B1A600232054B1A601932054B1A60704730280000AC070020A4070020B0070020A8070020014B18647047C04600000020CD
:4020400010B5041C00F062F8044A1368C0218B43A4011C43146000F05DF810BD00E400E00122014B1A60704700E100E00122014B1A60704780E100E010B5041CFFF7F6FF59
:40208000201CFFF7D7FF0320FFF7DAFFFFF7E8FF10BDC046014B98647047C0460000002010B5041C00F032F8044A1168044B0B40A4051C43146000F02DF810BD00E400E0CF
:4020C000FFFF3FFF0422014B1A60704700E100E00422014B1A60704780E100E010B5041CFFF7F6FF201CFFF7D5FF0320FFF7D8FFFFF7E8FF10BDC0460230800804D0C04652
:402100000138FDD1C046C046C0467047EFF3108072B6704780F310887047C046C046C046044B1B680F221340082BF9D0024B18607047C046080207404002074003460B4365
:402140007FD4002243088B4274D303098B425FD3030A8B4244D3030B8B4228D3030C8B420DD3FF22090212BA030C8B4202D31212090265D0030B8B4219D300E0090AC30B68
:402180008B4201D3CB03C01A5241830B8B4201D38B03C01A5241430B8B4201D34B03C01A5241030B8B4201D30B03C01A5241C30A8B4201D3CB02C01A5241830A8B4201D36F
:4021C0008B02C01A5241430A8B4201D34B02C01A5241030A8B4201D30B02C01A5241CDD2C3098B4201D3CB01C01A524183098B4201D38B01C01A524143098B4201D34B0171
:40220000C01A524103098B4201D30B01C01A5241C3088B4201D3CB00C01A524183088B4201D38B00C01A524143088B4201D34B00C01A5241411A00D201465241104670478B
:402240005DE0CA0F00D04942031000D34042534000229C4603098B422DD3030A8B4212D3FC22890112BA030A8B420CD3890192118B4208D3890192118B4204D389013AD0EF
:40228000921100E08909C3098B4201D3CB01C01A524183098B4201D38B01C01A524143098B4201D34B01C01A524103098B4201D30B01C01A5241C3088B4201D3CB00C01A60
:4022C000524183088B4201D38B00C01A5241D9D243088B4201D34B00C01A5241411A00D20146634652415B10104601D34042002B00D54942704763465B1000D3404201B5B0
:40230000002000F00BF802BD0029F8D003B5FFF715FF0EBC4243891A1847C0467047C046014B18687047C046440100200E4B70B500251E1C0D4CE41AA410A54204D0AB00C8
:40234000F35898470135F8E700F064FB084B00251E1C084CE41AA410A54204D0AB00F35898470135F8E770BD202A0000202A0000202A0000282A0000031C8218934202D0B5
:4023800019700133FAE7704738B5104B051C1C68A36B002B15D1182000F060F80C4BA06303800C4B012243800B4B83800B4BC3800B4B0381052343810633838100230261A7
:4023C00043610022A36B1D615A6138BD440100200E330000CDABFFFF341200006DE6FFFFECDEFFFF154B10B51C68A36B002B15D1182000F033F8124BA0630380114B0122E3
:402400004380114B8380114BC380114B03810523438106338381002302614361A46B0D4A206961690C4B00F08DF80122002380185941206161614800400810BD44010020A6
:402440000E330000CDABFFFF341200006DE6FFFFECDEFFFF2D7F954C2DF4515808B5034B011C186800F004F808BDC04644010020032370B5CC1C9C430834051C0C2C01D2B1
:402480000C2405E0002C03DA0C2300202B6042E08C42F9D3204A1368101C191C002913D00A68121B0DD40B2A02D90A608B181FE08B4202D15A6802601BE04A685A600B1C28
:4024C00017E00B1C4968E9E7144E3368002B03D1281C00F025F83060281C211C00F020F8031C421CD0D00322C61C964386420AD11C60181C07210B301A1D8843821A0AD0AC
:402500005142995007E0311A281C00F009F8431CBAD0331CECE770BDF4010020F001002038B50023064C051C081C2360FEF74CFF431C03D12368002B00D02B6038BDC046B1
:40254000B4070020F0B54F46464605042D0C2C1CC0B41704160C3F0C9946030C7C4375435F4373437D19260CAD199C46AF4203D980235B029846C4444B4651434343240481
:402580002E0C240C2D0466442C1959188919201C0CBC90469946F0BD000000008803000048040000A20400006E0500006C060000040700009C070000340800003C09000087
:4025C000180A000048656C6C6F20776F726C640000300F40000400400F40000404000F403C300F4027310F4042320F4040330F4006400F4005410F4002420F4006430F40D8
:4026000002600F40001810182014300C0240040405020C010F0112411403150216381704180819061A261B081E101F012240250429082B062F013020310132403407350E62
:40264000361838203E043F01402545054721483149FF4AFF4BFF4DA0580459045A045B045C995D095F016040614062C064C066C084018A018C019C01A601B601BE40D8048A
:40268000DB04DF0100C40102071908010A7A0E011080170418A419821A021F80210123082801292831043210334038484004480249085006520269406A406B406E016F3D48
:4026C00070A0C0EDC28FC428CA0ECC0ECE0AD004D20804010A011101170118011C012101220125012901360137013E403F40580459045F0184A4865A8708886D89578A1216
:402700008B088E4992899357964999029B209D049E499F90A021A101A410A602A9A0AB5FAE21B0C0B238B30FB407B530B7C0B820BA02BBA0C035C5CBC6E0C80BC9FFCAFFAC
:40274000CBFFD804D904DA04DB04DC99DD09DF01E2C0E440E501001402020620070809800A600E0510E0114013401701181419211A581F4021842210268029212E252F288B
:40278000318032123709381039084114431048C04984511058405B10620463408040820487408A80908091409201961899809B099D24A020A202A328A440A810AD01AF8012
:4027C000C067C2CDC41DCAE5CCCDCE06D002D208D60CD803E00863026F027180D640DA80DC20AB02AD80AF01EA20EE506208D802540186088801A608D604E00102011101A2
:40280000030405060708090A0B0C0E0F101112131415161718191B1C1D1E1F2021222325262728292A2B2E2F3031323334350000000000000000005F000000070007001427
:402840007F147F14242A7F2A12231308646236495522500005030000001C2241000041221C00082A1C2A0808083E0808005030000008080808080060600000201008040255
:402880003E5149453E00427F400042615149462141454B311814127F1027454545393C4A49493001710905033649494936064949291E0036360000005636000000081422F3
:4028C00041141414141441221408000201510906324979413E7E1111117E7F494949363E414141227F4141221C7F494949417F090901013E414151327F0808087F00417F76
:4029000041002040413F017F081422417F404040407F0204027F7F0408107F3E4141413E7F090909063E4151215E7F09192946464949493101017F01013F4040403F1F2048
:4029400040201F7F2018207F63140814630304780403615149454300007F4141020408102041417F000004020102044040404040000102040020545454787F48444438389C
:4029800044444420384444487F3854545418087E090102081454543C7F0804047800447D40002040443D00007F10284400417F40007C041804787C0804047838444444388E
:4029C0007C14141408081414187C7C080404084854545420043F4440203C4040207C1C2040201C3C4030403C44281028440C5050503C4464544C44000836410000007F0092
:402A000000004136080008082A1C08081C2A080843000000F8B5C046F8BC08BC9E4670473D02000045140000F8B5C046F8BC08BC9E46704715020000482A0000C800002083
:402A4000800000007006000000000000B80700200000C05D80BB000030000000006CDC020404040000000000000000000000000000000000000000000000000000000000A3
:402A800000000000102A00000000000000000000000000000000000000000000000000000000000000000000000000000000000000000000000000000000000000000000DC
:402AC00000000000E40000200000000000000000000000000000000000000000000000000000000000000000000000000000000000000000000000000000000000000000D2
:402B00000000000000000000000000000000000000000000000000000000000000000000000000000000000000000000000000000000000000000000000000000000000095
:402B40000000000000000000000000000000000000000000000000000000000000000000000000000000000000000000000000000000000000000000000000000000000055
:402B80000000000000000000000000000000000000000000000000000000000000000000000000000000000000000000000000000000000000000000000000000000000015
:402BC00000000000000000000000000000000000000000000000000000000000000000000000000000000000000000000000000000000000000000000000000000000000D5
:0200000490303A
:0200000022A636
:0200000490402A
:200000000000000000000000000000000000000000000000000000000000000000000000E0
:0200000490501A
:0C000000000204C81193110104D534392A
:0200000490600A
:0100000001FE
:00000001FF