:400000000020002011000000810A0000810A000008B501F089F900F04DFDC04610B51222134B1A60302001F0F7F8A022D200114B1A60114B114A1A6088218901104A11604F
:40004000104A1A600024104B1C6040220F4B1A6001320F4B1A600B200E4901F027F80B2000F0FEFF0C4B1C60002001F065F910BD30001040000301400000014040FF0080F7
:400080000403014041FF0080280003400801014004010140D11300000C02074008B572B60F4A104B1A60EE2212020F4B1A6023220E4B1A600E4A0F4B1A6020220E4B1A60A0
:4000C0001A3A0E4B1A60D82212040D4B1A600D4A0D4B1A60FFF7A2FF00F034FD08BDC046EE00990000000240000302400000044024100300080004401800044008010440CD
:4001000008020440860D00000803044010B5064C2378002B07D1054B002B02D0044800E000BF0123237010BD60010020000000009451000008B5084B002B03D0074808490A
:4001400000E000BF07480368002B00D108BD064B002BFBD09847F9E70000000094510000640100209800002000000000024A1368013313607047C0467C010020F0B54F463B
:400180004646C0B487B062B602AB002438225242DA7100221A725A729A72052302AA937154709470FF23D3701371537100F0E6FC1020102102AA00F055FD00F087FE0F204E
:4001C0008F4900F063FF8F4A8F4B53608F490B6A1B021B0AC020000603430B629460072313608B4800F01CFF012001F043F90023994600260027019398460025854B1B6851
:400200000A3BBB420FDD834B1F6800F0F3FE722809D105E002AB185D00F076FE013400E000240F2CF6DD7B4B1B68323B4B451BDD784B1B689946002000F0F4F8012000F0C4
:40024000F1F8022000F0EEF8734B1A685868844662449B68D118714801F0ECF9704B1860FF2801DDFF221A606A4B1B68F53BFF3BB3420CDD674B1E6801F008F9002803D03A
:40028000002001F0F7F802E0012001F0F3F8614B1B689C4602ABDC1DD8791A7A120202435B7A1B0413431A1CE3781B0613436246D31AAB42A2D9574B1D6802AB9B78012B08
:4002C0009CD102AB5B78072B19D14346002B09D101F04EFE02AB997901F092FA012901D1012398464346002B09D002ABD87819795A7900F083FA002100F086FA804602AB90
:400300005B78082B19D14346002B09D101F030FE02AB997901F074FA002901D1012398464346002B09D002ABD87819795A7900F065FA002100F07EF9804602AB5B78062BC8
:4003400008D102ABD87819795A7900F057FA002100F0B2F902AB5B78052B08D102ABD87819795A7900F04AFA002100F03DF902AB5B78042B07D1019B5C1CE4B2181C002159
:4003800000F014FA019402AB5B78022B0AD102ABD87819795A7900F031FA011C0020002200F0E2FA02AB5B78032B0AD102ABD87819795A7900F022FA02AB9979002200F0B2
:4003C000F1F802AB5B78012B0AD102ABD87819795A7900F013FA02AB9979002200F0B6F802AB5B78002B00D008E702ABD87819795A7900F003FA002100F092F8FEE6C04671
:400400006D01000010E000E07FBB000000ED00E0985100007C0100209C000020E21D000020020020F0B572B6002767E003011B1A9B00DB199B00354A9E58002804D00128BC
:4004400005D1334B402404E0324B012401E0324B01248021090400224CE031422DD11D6825431D60C046C0461D68A5431D60C046C046C046C046C046C046C046C046C046B8
:40048000C046C046C046C046C046C046C046C046C046C046C046C046C046C046C046C046C046C046C046C046C046C046C046C046C046C046C046C0461AE01D6825431D6030
:4004C000C046C046C046C046C046C046C046C046C046C046C046C046C046C046C046C046C046C046C046C046C0461D68A5431D6049080132172A00DCAFE701378300074A51
:400500009B58BB4200DD91E762B6F0BD240200200002044000030440000104409C00002010B5002207E00B015B1A9B009B189B00044C185101328B00034C1B599342F2DCC8
:4005400010BDC046240200209C00002070B5002408E013019B1A9B001B199B0000260F4D5E5101340B1EA342F3DC111C1501AA1A92001419A400094AA0505A1C08E00B01E8
:400580005B1A9B009B189B00002404481C5001328B0003481B589342F1DC70BD240200209C00002030B5002507E013019B1A9B005B199B000A4C185101350C1EAC42F4DA75
:4005C00008E013019B1A9B001B199B000020044958500134930003495B58A342F1DC30BD240200209C00002038B5051C0C1C0020FFF796FF0C4B1868021C07E023011B1B4C
:400600009B009B189B0009495D500332A30008495B589342F2DC431C034A1360022B02DD0022014B1A6038BD80010020240200209C00002070B5051C0C1C1D4B1B79002B13
:4006400010D11B4E013333711A4B186801F062FC01F08EFC062101F0D3F80331B160F5600023336101F084FCC20F831801201840801A012805D10E4BD868211CFFF750FF6B
:4006800003E00020211CFFF74BFF094B1A69511C19619B685B009A4208D10022044B1A710020211CFFF73CFF002000E0012070BD800100207C010020F8B5061C0D1C0204D5
:4006C0000302920E12029B0E1B0413430406A40E1C430020FFF724FF1E4B5A69002A0AD11D492A01531B1B015E50CD186C6001221A4B1A6026E0AB0019495B58013B9A4244
:4007000011D1154829014B1B9B009B189B001E50013A4D1BAD00AD18AD002C50012252420E4B1A600EE0511E0B482B015F1BBF00791889000C50B91889000E500132BA1883
:4007400092001450034A054B1B6851698C4663445361F8BD8001002024020020A80000209C000020C343DBB2542B07D89800181AFF3000025A00D318184315E0A92B09D826
:40078000553BDAB25000801800049300D21AFF32104309E05633DAB25000801800029300D21AFF32120410437047C04670B5061C0D1C00240BE03019C0B2FFF7D3FF2B0142
:4007C0005B1B9B001B199B00044A98500134AB00034A9B58A342EEDC70BDC046240200209C00002010B50404240E0C60FF21014019600002000E106010BDC0460002090438
:4008000001431143081C7047F0B5474680B4051C0E1C514B1B7E002B26D14F4C013323764E4B186801F076FB01F0A2FBC217920F831803201840801A0230E0610023236287
:400840006362A362E362211C3031221C3432231C3833281CFFF7C6FF01F08AFBB300404A995800F0CDFFE1633B4DEC69286B211C00F0E0FE8046A86B211C00F0DBFE071C5D
:40088000686B211C00F0D6FE621E2B6A9A4204DC4246524290467F424042591C2E4A11626400A3420BDA131C526A42445A629A6A944667449F62DA6A94466044D862264BAC
:4008C0005B6AFF2B02DDFF22234B5A62224B9B6AFF2B02DDFF22204B9A621F4BDB6AFF2B02DDFF221C4BDA621B4B5B6A002B02DA0022194B5A62184B9B6A002B02DA00225B
:40090000154B9A62144BDB6A002B02DA0022124BDA620020311CFFF703FE0F4CE56B606AE16AA26AFFF76AFF33019B1B9B005D19AD000C4BE850E3695B00226A934207D14F
:40094000002222760020311CFFF7EAFD002000E0012004BC9046F0BD800100207C0100209C0000202402002070B50E1C151C4023424AD35C002B32D1141C01224033E25407
:40098000211C4431221C4832231C4C33FFF72AFF636C2365E36C6365A36CA365211C5C31221C6032231C6433301CFFF71BFFE36D626C991A636EE26C9A1A236EA06C1B1A29
:4009C000C817000F41180911A166D117090F8A181211E266DA17120FD3181B112367274C206DA16D626DFFF709FF291CFFF798FDA26E236DD318E16D8B4204DD1F4B1965B5
:400A000052429A660AE01D49496C8B4204DA1B4B196552429A6601E0184A13651749CA6E4B6DD318496E8B4204DD144B59655242DA660AE01149C96C8B4204DA0F4B596572
:400A40005242DA6601E00D4A53650C4A116F936DCB18126E934204DD084B9A65494219670AE0064A926C934204DA044B9A654942196701E0014A936570BDC046800100202A
:400A8000FEE7C04608B5031C084A1068C318084A9A1A802A02DC054A136005E000F0BCFE0C2303600120404208BDC046AC0000201005002070B50F4E0F4D13E029686B68B5
:400AC000AC68002202E001C901C30432A242FAD1E868002202E0002102C304328242FAD11035013E002EE9D100F09CFEFFF746FBFEE7C046010000008853000008B5002398
:400B00000AE0032B03D89A000949505800E009489900094A88500133232BF2D9FFF7BEFA0022064B1A6080229205054B1A6008BD00000000810A000000000020900000202E
:400B400008ED00E00022014B1A607047000E3F4008B5092000F084FA08BDC04608B500F01DF808BD08B5044A1368802109060B431360FFF7EDFF08BD00000A4008B5064BD8
:400B80001B78002B04D1FFF7E9FF0122024B1A70FFF7E8FF08BDC046F401002010B500241B4B1C601B4A1C4B1A601C4B1C4A13601C4A14601C491D4A11601D4A13600222A7
:400BC0001C4B1A60092000F055FA0920032100F07FFA0920184900F069FA184B1C60184B1C603222FF32174B1A60174B1C602E3AFF3A164B1A60164B1C60164B1C70164B75
:400C00001C70164B1C80164B00221A7010BDC04600000A4000F8004060000A400701008000030A4004030A401400FE0010030A4000020A4004020A40950C0000C80E0A402D
:400C4000880E0A40480F0A40080F0A40C80F0A40880F0A40F8040020FC040020F6040020F404002070B5061C0D1C141E0BD0092000F000FA044B1C60044B1E80044B1D80EE
:400C8000092000F0EDF970BD0005002004050020FA040020F8B56E4B1B68002B00D098476C4B1C686C4B1E680223FF331C422AD06A4A13685B005B081360694A11781023E3
:400CC0000B431370674B1B78DB070BD5664B1A78664B1B889A420AD0614A117808230B43137004E05E4A117802230B43137000235F4A13605B4A1370584A13688021090660
:400D00000B431360A3E0330744D55A4B1D68554B1B78012B04D0002B16D0032B28D032E0524B1B88544A1288934209D2534A1268D318EAB21A704D4A13880133138025E028
:400D40000322484B1A7021E04D4B1B88AB4207D9454B1D70454B1D800122424B1A7015E0414B1A78414B1A8003223E4B1A700DE0444B1A68802149020A431A601968424A75
:400D80000A401A6002E0002000F07EF904223F4B1A6000E00025202121401BD02D4A402313603B4B3B481860022018602E4F3B7832480068C3181B78DBB2374803602B4880
:400DC00005883B78013303800120294B1860146004231E4373071DD5244B1B88284A128893420BD2254A1268D3181B78DBB22A4A13601E4A13880133138002E0FF22264B9E
:400E00001A60264B1B681F221340022BE4D11E3A234B1A60E3061AD5002903D10D4B1C60124B1D88104B1B78AB4205D00D4B1B78DB0703D4022302E0022300E00A231C40FA
:400E4000074B1A7814431C700022064B1A70F8BDF8010020400F0A40000E0A4000000A40FC040020F8040020F4040020F6040020880F0A4040030A40FA0400200005002086
:400E80000405002004030A40FFFFFEFFC00F0A4004020A400200010040020A4008020A40800F0A4008B500F08FF808BD08B500F039F808BD08B5044A1368802109060B4378
:400EC0001360FFF7EFFF08BD0000094008B5064B1B78002B04D1FFF7E9FF0122024B1A70FFF7E8FF08BDC046FC010020014B18687047C04640030940024B1B681F201840D3
:400F00007047C04608030940044B1B681F221340082BF9D0024B18607047C046080209404002094010B5154A154B1A600023154A13600121144A1160144A154802600724B2
:400F400014480460144803601448016014490A60144A13600421144A1160144A1360144A1360144A1360144A1360144A1360144A13601268134B1A8010BDC0460B00000271
:400F80000000094040000940480009400700008000030940040309401003094044000940000209400402094050000940880E0940C80E0940480F0940080F0940C80F094071
:400FC000880F0940FE010020064A1168064B0B40902109040B431360044B1A88044B1A607047C04600000240FFFF0FFFFE010020880F094008B5FFF77FFF002802D0FFF729
:4010000075FF00E00020054B1A68D8239B001A4203D01A1C014B1A60002008BDC00F094038B5051C002402E0FFF76EFF0134285D0028F9D138BDC046024A1168024B0B4031
:401040001360704700000740FFFFFFBF034B18688023DB05184000D001207047000007401F2318401E3B8340181C014B1860704700E100E01F2318401E3B8340181C014B4F
:401080001860704780E100E001BE704738B5041C0D1C0F2802D90020FFF7F6FFA40080239B059C4664442068256038BD38B5041C0D1C132802D90020FFF7E6FFA400034B4B
:4010C0009C4664442068256038BDC0464000002070B5041C0E1E032E02D90020FFF7D4FF132C02D90020FFF7CFFF03252540ED00063500F0DEF9A408A400074B9C466444F2
:4011000023680322AA409343AE40351C1D43256000F0D3F970BDC04600E400E010B5041C06E0084B186800F0BBF9074B9C46644480231B029C42F4D8024B5868604300F040
:40114000AFF910BDB00000200080FFFF30B583B000F0E0F8002848D000F0ABF9041C244B1B6807221A409200131C1833214A12681207920FD3401A1C1F4B19681F4B1940C1
:401180001F4B53438020C00184466344DB0B013B5B055B0D0B43A02149031943192A02D8184A13430BE0184BD31818781A3A174B9B5CC318FF2B00D9FF239B050B430E4A2B
:4011C0001360134D2B680193302000F079F9114A13688021C9050B4313601420FFF79EFF019B2B60201C00F068F903B030BDC046080F0340280003400800074000F800C050
:4012000040420F000000D43FCDF1FF0FA45100003000104000000740F0B583B0041E182C0BD01C2809D0202807D0242805D0282803D02C2801D0302849D100F03AF901909E
:40124000FFF704FF002803D0FFF7F6FE012600E00026214A136807218B4313601F4BE3181B78DBB21E4A13601E4A13688B4313601D4803687F229343191C1C4BE3181B781F
:4012800013400B430360322000F00AF9182C16D9114F3B680725AB431A1C231C1C3B9B082B4013433B60322000F0FAF83A68AA43231C183B9B082C1C1C4014433C60012E0C
:4012C00001D1FFF743FF019800F0F7F802E00020FFF7DAFE03B0F0BD080F0340CDF1FF0F0C0F0340100F0340180F0340B4F1FF0F08B5034B1B7A584300F0D2F808BDC04679
:40130000B0000020024B1868800F80077047C0460C020740034B1B68002B01DA012000E00020704700000740014A024B1A6070476588EDAC3800034010B5041CFFF7E2FF6C
:40134000A0421AD0144A136803218B431360134B1B689B0F01D17C2001E086204000FFF7C7FF00F0A6F80D4A13689B009B08A40FA4071C43146000F0A0F8074B1B68032296
:401380009343064A1268920F01D1023200E001221343014A136010BD140207400C02074010B5041C00F085F8064B221C1A4006490C68064B234013430B600B6800F07DF805
:4013C00010BDC0460404040010020740FBFBFBFF10B5244B1B685B0715D5234B1B685B070ED5224B5969042001401F4C22688A4322605A6982435A619B68002B00D0984794
:401400000420FFF7CDFF174B1B685B0518D5164B1B685B0510D5154B59698022D2001140114802688A4302605969114A0A405A61DB68002B00D098478020C000FFF7B0FF4E
:40144000084B1B685B030CD5074B1B685B0304D5064B1B69002B00D098478020C002FFF79FFF10BD10020740C000002000020020FFFBFFFF044A11687F230B40C001C0B29F
:40148000184310607047C04600020440024B18680006C00F7047C04604020440000000000230800803D001300238FCD1C046C0467047EFF3108072B6704780F3108870471A
:4014C00038B5041CFFF7F5FF051C102C05D8104A136803218B43136016E0202C07D80C490B6803229343023A13430B600CE0302C07D807490B6803229343013A13430B60BF
:4015000002E00020FFF7C0FD281CFFF7D6FF38BD30001040002243088B4274D303098B425FD3030A8B4244D3030B8B4228D3030C8B420DD3FF22090212BA030C8B4202D3BA
:401540001212090265D0030B8B4219D300E0090AC30B8B4201D3CB03C01A5241830B8B4201D38B03C01A5241430B8B4201D34B03C01A5241030B8B4201D30B03C01A5241A5
:40158000C30A8B4201D3CB02C01A5241830A8B4201D38B02C01A5241430A8B4201D34B02C01A5241030A8B4201D30B02C01A5241CDD2C3098B4201D3CB01C01A52418309BA
:4015C0008B4201D38B01C01A524143098B4201D34B01C01A524103098B4201D30B01C01A5241C3088B4201D3CB00C01A524183088B4201D38B00C01A524143088B4201D3D1
:401600004B00C01A5241411A00D20146524110467047FFE701B5002000F0FCF802BDC0460029F7D003B5FFF775FF0EBC4243891A1847C04603460B437FD4002243088B42EC
:4016400074D303098B425FD3030A8B4244D3030B8B4228D3030C8B420DD3FF22090212BA030C8B4202D31212090265D0030B8B4219D300E0090AC30B8B4201D3CB03C01AB7
:401680005241830B8B4201D38B03C01A5241430B8B4201D34B03C01A5241030B8B4201D30B03C01A5241C30A8B4201D3CB02C01A5241830A8B4201D38B02C01A5241430A7C
:4016C0008B4201D34B02C01A5241030A8B4201D30B02C01A5241CDD2C3098B4201D3CB01C01A524183098B4201D38B01C01A524143098B4201D34B01C01A524103098B427D
:4017000001D30B01C01A5241C3088B4201D3CB00C01A524183088B4201D38B00C01A524143088B4201D34B00C01A5241411A00D201465241104670475DE0CA0F00D049426B
:40174000031000D34042534000229C4603098B422DD3030A8B4212D3FC22890112BA030A8B420CD3890192118B4208D3890192118B4204D389013AD0921100E08909C3098A
:401780008B4201D3CB01C01A524183098B4201D38B01C01A524143098B4201D34B01C01A524103098B4201D30B01C01A5241C3088B4201D3CB00C01A524183088B4201D38D
:4017C0008B00C01A5241D9D243088B4201D34B00C01A5241411A00D20146634652415B10104601D34042002B00D54942704763465B1000D3404201B5002000F00BF802BDA8
:401800000029F8D003B5FFF715FF0EBC4243891A1847C0467047C046014B18687047C046240100200E4B70B500251E1C0D4CE41AA410A54204D0AB00F35898470135F8E786
:4018400003F090FD084B00251E1C084CE41AA410A54204D0AB00F35898470135F8E770BD70530000705300007053000078530000002310B5934203D0CC5CC4540133F9E766
:4018800010BD031C8218934202D019700133FAE77047F0B58BB0141C1D1E129906DA802424062B191D1C141C2D2300E000230B702023149E03229E43462E07D0331C453B72
:4018C00059424B411099013ACB181093109B00920193139B221C029308AB039309AB04932B1C00F037FC071C472E02D1119BDB072CD5109BFB180793462E14D13B78302B4E
:401900000CD1201C291C0022002301F0AFFD002804D10123109A9B1A139A1360139B079A1B68D3180793201C291C0022002301F09DFD002801D0079B0993099B079A9342CE
:4019400004D25A1C099230221A70F6E7381C099B159ADB1B13600BB0F0BDF7B52B23071C0C1C0270861C002901DA2D234C427B70092C1CDD6B46DD1D201C0A21FFF740FFB4
:40198000013D30312970201C0A21FFF753FE041E092CF1DC013D30342C706B460733301CAB4209D92B78013533700136F5E73023E4183370B01C7470C01BFEBDF0B593B02A
:4019C0000C1C08920993189E051C01F0C3F90368181C0B9300F030FB0023216810930C90277E33680722C90501D59B1800E0073393431A1C083232601A685B68A264E3647E
:401A0000A06CE16C00F0F0FA012818D1A06CE16C0022002301F030FD002803D0231C2D2243331A70B64B0A93472F01D9B54B0A9303232268236101339A43226012E0A06CCC
:401A4000E16C00F0D1FA266800280DD1AE4B0A93472F01D9AD4B0A930323311C2361013399432160002680E080216068C900431C01D1062309E0A26CE36C672F01D0472F92
:401A800004D1002800D0C0E101236360636831430093232321600191002106AA9B1802930FAB039310AB05930497A26CE36C0691281CFFF7EEFE20233A1C0A909A43472AB4
:401AC00007D10F9BDA1C02DB626893422DDD023FFFB20F99652F12D8201C01393A1C50300F91FFF73AFF109A061C83182361012A02DC2268D2072ED5013323612BE0662F03
:401B000014D16368002908DD2161002B02D12268D2071DD50133CB1811E0002B03D101222168114213D09A1C11E067270F9B1098834206DB22682361D20709D5013323617F
:401B400006E00122002B01DC0221CA1A8218226100260F9BA365232306AA9B181B78002B03D0231C2D2243331A70099B281C0093211C089B11AA00F05FF9431C02D10120DF
:401B8000404256E12268530504D4281C08990A9A236916E1652F00D8D4E0A06CE16C0022002301F063FC00282BD00123281C0899574A099EB047431CE1D00F9B109A9342F4
:401BC00007DB2368DB0704D423689B0700D51AE113E1099E281C08990B9A0C9BB0470026431CCCD0109B013B9E42EDDA221C0123281C08991A32099FB847431CBFD00136F0
:401C0000F0E70F9B002B2BDC0123281C0899404A099EB047431CB2D00F9B002B05D1109B002B02D12368DB07CED5099E281C08990B9A0C9BB0470026431CA0D00F9B281CC9
:401C40005B4208999E4208DA221C01231A32099FB847431C93D00136F0E70A9A109BB0E0109BA66D9E4200DD1E1C002E01DC002314E0331C281C08990A9A099FB847431CAB
:401C8000F5D17CE7221C0123281C08991A32099FB847431C00D172E70D9B01330D93F343A26DDB170D993340D31A9942EADB0A9B9E180F9B109A93420EDB2368DB070BD426
:401CC000109B0A9AD7180F9ABF1B9B1A9F4200DD1F1C002F09DC11E00C9B281C08990B9A099FB847431CEBD149E7321C3B1C281C0899099EB047431C00D140E7002315E0B6
:401D0000BE510000C2510000C6510000CA510000CE510000221C0123281C08991A32099EB047431C00D12AE70A9B01330A930F9A109B9A1AFB43DB173B40D31A0A9A9A4228
:401D4000E8DB41E7109B281C0899012B02DC01231A423CD001230A9A099FB847431C00D10DE70C9B281C08990B9A099FB847431C00D104E7A06CE16C0023002201F076FBCC
:401D80000023002812D10A9A109B0132013B281C08991DE0221C0123281C08991A32099FB847431C00D1EAE60A9B01330A93109B0A9A013B9A42EDDB221C281C331C089904
:401DC0005032099EB047431C00D0FDE6D7E60A9A099FB847431CEFD1D1E6221C0123281C08991932099FB847431C00D1C7E60136E368119A9B1A9E42EFDB119BE068984263
:401E000017DA181C15E00026F2E73143216001912321009006A8091802910FA9039110A90591002104970691281CFFF732FD0A9047E613B0F0BDC046F7B5171C01930A6952
:401E40008B6800900C1C934200DA131C221C3B6043321278002A01D001333B6023689B0602D53B6802333B60062523681D401ED0231C43331B785A1E9341226892061CD519
:401E80003020E1184031C870211C5A1C45310978A21840320233D1700FE0221C0123009801991932089EB047431C0ED00135E3683A689B1A9D42F0DBDAE7221C0098019989
:401EC0004332089DA847431C02D10120404220E006232068E1683A6803400025042B03D18D1AEB43DB171D40A3682269934201DD9B1AED180027AF420ADA221C01230098E0
:401F000001991A32089EB047431CDED00137F2E70020FEBD38B5104B051C1C68A36B002B15D1182000F01AFF0C4BA06303800C4B012243800B4B83800B4BC3800B4B0381F2
:401F400005234381063383810023026143610022A36B1D615A6138BD240100200E330000CDABFFFF341200006DE6FFFFECDEFFFF154B10B51C68A36B002B15D1182000F065
:401F8000EDFE124BA0630380114B01224380114B8380114BC380114B03810523438106338381002302614361A46B0D4A206961690C4B01F089FA0122002380185941206163
:401FC00061614800400810BD240100200E330000CDABFFFF341200006DE6FFFFECDEFFFF2D7F954C2DF4515830B50C1C0223044317D080242406A14201D1002811D00A4BCF
:4020000049004908094ACC180423944209D9084A013B914205D9074A0023914201D143424341181C30BDC0460000F0FFFFFFDF7FFFFF0F000000F07F0023C25C0133002A02
:40204000FBD1581E7047F0B503690C6989B00026A3427CDB0B1C013C1433A50003935B190493031C143301935D19049B07911B680290591C28680593FFF74CFA071EB742A2
:4020800035D0039B01989C460596634604CB91B27943120C7A4371180E0C9C46B318069302881E0C059B89B2D2180368521A190C6B461B8BCB1A11145B18191492B21B0453
:4020C0001A43049B059104C06345DED22B68002B0DD1231C019A043D954203D8029A1C1C136104E02A68002AF8D1013BF2E70298079901F04FF8002828DB00200199039A0F
:40210000013720CA0B881818ABB2C31A08682D0C000C451B1E14AD1928149BB22D042B4308C1049B9342ECD2019AA300D3181A68002A0BD1019A043B934202D8029B1C61FC
:4021400004E01A68002AF9D1013CF3E73E1C301C09B0F0BDF0B5161C1F1C446A9BB00890239D06960797002C08D1102000F0F6FD089B5862446084600460C460089B5B6A58
:40218000196800290BD05A68012393404A608B60089800F025FE0022089B5B6A1A60079B002B05DA01232B607B005B08079301E000232B60079CC64B221C17931A409A4261
:4021C00019D1C44B229A1360069AC34B002A02D1240300D1C14B249A181C002A01D100F0B6FDD978DA1C002900D005322499181C0A6000F0ACFD069E079F0022301C391CFF
:40220000002301F033F9051E0ED00123229A1360B34B249A181C002A01D100F098FDB14A24990A6000F093FD19AB009318AB01930898321C3B1C01F033F861000A90490D97
:4022400009D03803A84C000B0443A848321C231C0E1816951CE0189B199A9E18A44B9E4209DBA44BF018069BC340181CA24B9B1B9C40204304E0A148069B801B8340181C3A
:4022800002F038FF9E4C021C0B190121013E1691101C191C00229B4B02F040FB9A4A9B4B02F0A2F89A4A9B4B01F038F9041C301C0D1C02F0E3FE984A984B02F095F8021C1F
:4022C0000B1C201C291C01F029F9041C0D1C02F09FFE291C03900022201C002301F0CCF800280DD0039802F0C9FE021C0B1C201C291C01F0BBF843424341039AD31A039351
:4023000001231393039B162B11D8854ADB00D31818685968069A079B01F0C2F8002805D0039B013B03930023139300E01390189B9E1B00230D93013E0E9604D50E9B5B425E
:402340000D9300230E93039B002B08DB039A0E9B944663440E93002312920F9307E00D9B039A9B1A0D9353420F9300231293209B0125092B27D8052B02DD0025043B2093C2
:40238000209B981E032823D801F056F8020E0410002300E001231093219B002B21DC01230B9309931A1C1AE0002300E00123039A10939446219B63440B9301330993002BAA
:4023C00012DC012310E0002310952093013B02E001231093023B00220B9309931333219202E0219B0B930993089A546A002262600432111C1431994204D861685200013121
:402400006160F6E70898616800F0B2FC089B20605B6A1B680C93099B0E2B00D988E1002D00D185E1069B079C14931594039B002B30DD0F223A491340DB00CB185C681B68F4
:4024400004930594039B02271D11EB060AD514981599344B15401A6A5B6A01F087FB0690079101372F4C002D0DD0EB0708D5049805992268636801F0B7FF0490059101372B
:402480006D100834EFE706980799049A059B01F06DFB49E0039B02275D42002D46D0149815990F231E4A2B40DB00D3181A685B6801F09AFF1B4C2D11002D35D0EB0704D550
:4024C00022686368013701F08FFF6D100834F3E70000F07F0F270000D9510000D0510000CE510000CF5100000000F03F01FCFFFFEFFBFFFF120400000EFCFFFFEEFBFFFFF7
:40250000000010FE0000F83F61436F63A787D23FB3C8608B288AC63FFB799F501344D33FE8510000B052000006900791139B002B1ED0069C079D0022201C291CCE4B00F096
:402540009BFF002814D0099B002B11D00B9B002B00DCE9E0039B291C013B1193201C0022C64B01F041FF0137069007910B9D02E0039B099D1193381C069B079C049305948C
:4025800002F07CFD049A059B01F02EFF0022BC4B00F0C4FF06900791069E079F079BB94A9C18002D1CD1049805990022B64B02F0B5F9321C231C0490059100F071FF002851
:4025C00000D063E204980599321CB04E079CB4466444231C00F050FF002800D04CE2A3E0AB4A6B1E1099DB00D31800294ED01A685B680020A74901F0B9FA321C231C02F028
:402600008DF9049E059F0C9B069007910493391C301C02F0FDFC041C02F030FD021C0B1C301C391C02F07AF9049B303401330493013B1C70069A079B061C0F1C00F01CFF1C
:40264000002800D061E3321C3B1C00208A4902F065F9069A079B00F00FFF002800D0CDE0049B0C9A9B1AAB425EDA069807990022824B01F0B9FE0022069007917F4B301CF7
:40268000391C01F0B1FE061C0F1CC0E718685968321C231C01F0A8FE049E059F0C9C0690079163190493391C301C02F0B1FC051C02F0E4FC0B1C021C391C301C02F02EF96B
:4026C0003035049B25700134061C0F1CA34224D10022069807996F4B00F020FF021C0B1C301C391C00F0DCFE002800D086E0069A079B0020674902F011F9021C0B1C301C0F
:40270000391C00F0B9FE00280ED0049B013B1A78302A00D0F9E20493F7E70022574B01F063FE061C0F1CBEE7149B159C06930794199B002B00DA86E0039A0E2A00DD82E0E1
:40274000D300534AD3181E685F68219B002B14DA099B002B11DC00D090E1301C391C0022494B01F041FE069A079B00F0A3FE099F3E1C002800D083E18CE10C9B069C079DCD
:402780000493321C3B1C201C291C01F0EFF902F03FFC069002F072FC321C3B1C01F024FE021C0B1C201C291C02F0B8F80B1C0499021C0698013104913030013908700C9843
:4027C0000499091A099881422ED1101C191C00F0A5FE321C3B1C041C0D1C00F061FE002810D1201C291C321C3B1C00F03FFE002800D18CE2069BDB0704D488E2119B0393BB
:4028000000E00493049B013B1A78392A08D10C9A9342F6D1039B0133039330231370131C1A7801321A7072E2101C191C0022134B01F0DAFD00220023041C0D1C00F016FEEB
:4028400000289ED063E2109A002A44D0209A012A0BDC169A002A02D00F4A9B1802E03623189A9B1A0F9D0D9C29E0099B5D1E0F9BAB4213DB5D1B18E00000F03F000024406A
:4028800000001C400000C0FC000014400000C07CE85100000000E03F330400000F9B0F95EA1A0025129B9B181293099B002B04DA0D9B099A9C1A002301E00D9C099B0D9ABF
:4028C0000898D2180D920E9A0121D3180E9300F026FB061C02E00F9D0D9C109E002C0CD00E9B002B09DDA34200DD231C0D9AE41AD21A0D920E9AD31A0E930F9B002B21DD45
:40290000109B002B18D0002D10DD311C2A1C089800F09CFB061C0A9A311C089800F008FB071C0A99089800F05BFA0A970F9B5A1B08D008980A9902E008980A990F9A00F01B
:4029400085FB0A900898012100F0E9FA129B071C002B0ADD391C1A1C089800F077FB209B071C0025012B1BDC03E0209B0025012B12DC0025069BAB420ED1079B1B03AB42F7
:402980000AD1179B079A134206D00D9B013501330D930E9B01330E93129B0120002B08D03B6903339B00FB18586800F06EFA2023181A0E9BC0181F23184009D001331B1A4B
:4029C000042B02DD1C23181A03E0042B08D0181C1C300D9B24181B180D930E9B1B180E930D9B002B05DD08980A991A1C00F080FB0A900E9B002B05DD391C08981A1C00F0B6
:402A000077FB071C139B002B1ED00A98391C00F0C1FB002818DA039B0898013B03930A9900230A2200F0F5F9109B0A90002B00D17FE1311C002308980A2200F0EAF90B9B47
:402A4000061C002B3CDC7DE1099B002B2EDC209B022B2BDD099B0B930B9B002B10D1391C0898052200F0D5F9071C0A98391C00F091FB00280EDC03E02F1C00E000273E1CC5
:402A8000219BDB4303930C9B04930CE02F1C2E1C119B03930C9B0C9A0133049331231370039B01330393099600261AE1109B002B04D1099B0B930C9D0A9CD0E0099B0B9360
:402AC000002C05DD311C0898221C00F011FB061C0996002D12D07168089800F049F9311C041C33690C319A1C92000C30FEF7C0FE0898211C012200F0FBFA09900C9B0C9ADE
:402B00000E930B9B0A9C013BD3181093391C201CFFF799FA031C0F903033311C201C0D9300F038FB391C0B90099A089800F04DFB01230493C368051C002B04D1201C291C64
:402B400000F028FB04900898291C00F049F9049B209A134310D1069A013313420CD10D980A9439283DD00B9B002B01DD0F9831300E9B013304933EE00B9B002B05DA049BB8
:402B80000D9D0A94002B09DC1CE00B9D209B1D431ED10123069A13421AD1F0E7211C0898012200F0A5FA391C0A9000F0F3FA002803DC07D10D9BDB0704D50D9B392B10D0AB
:402BC0001D1C01350E9B013304930E9B1D7088E00E9B5D1C049B002B10DD0D9B0A94392B06D10E9B0E9A013304933923137060E00D98049501300E9B187072E06A463421C8
:402C0000521812780E9B04951A70109A93423FD0211C0A220023089800F0FBF8099B041C311C08980A229E4205D1002300F0F1F8061C09900AE0002300F0EBF80999061C49
:402C40000A220898002300F0E4F809900E955DE7211C08980A22002300F0DBF8041C201C391CFFF7F0F934226B4630309B180D901B780B9A2B700C9B0135EB1A9342E7DB97
:402C8000131E00DC0123099600260C9AD3180493211C0898012200F02BFA391C0A9000F079FA002805DC15D10D9BDB0701D411E00493049B013B1A78392A08D10C9A934295
:402CC000F6D1039B013303933123137009E001321A7006E0049B013B1A78302A01D10493F8E70898391C00F07BF8099B002B0ED0002E05D09E4203D00898311C00F070F833
:402D00000898099900F06CF801E0119B039308980A9900F065F80023049A0C981370039B229A01331360249B002B10D0049A1A600DE00B9B002B00DDBDE6209B022B00DD7C
:402D40008AE6B8E6209B022B00DD85E6B8E61BB0F0BDC046004870472801002008B5034B011C186800F0FEFA08BDC0462401002070B5466A041C0D1C002E07D11020FFF7C7
:402D8000EDFF6062466086600660C660666AF368002B09D0626AAB00D268D318186800280ED002681A6017E0201C0421212200F0CBFA636AF060DB68002BEBD100200EE073
:402DC00001210E1CAE40721D9200201C00F0BCFA0028F3D04560866000230361C36070BD70B5456A061C0C1C002D07D11020FFF7B5FF7062456085600560C560002C07D063
:402E0000726A6368D2689B00D3181A6822601C6070BDF7B51E1C14239C46071C0C1C00200D698C44634619881B6851431B0C534389190E0CF31889B21E0C1B045B1861464B
:402E4000013008C18C46A842ECDB002E1BD0A3689D4212DB6368381C591CFFF789FF211C236901909A1C0C3192000C30FEF700FD211C381CFFF7B4FF019C2B1D9B00E31811
:402E800001355E602561201CFEBD0022031C010C914201D103041032190E01D108321B02190F01D104321B01990F01D102329B00101C002B03DB20205B0000D5501C7047B8
:402EC0000722036810B5011C1A400CD001240020234223D10222134203D0E340201C0B601CE09B0818E098B2002801D110221B0CD8B2002801D108321B0A180701D1043234
:402F00001B09980701D102329B08D80704D45B082020002B02D00132101C0B6010BD10B50C1C0121FFF724FF01234461036110BDF0B50B69141C126989B00D1C934201DA3F
:402F4000251C0C1C2F692669AA68BB1969680093934200DD0131FFF70BFF011C009B1431844698000B1C0818834202D2002204C3FAE71435BF00EB191434B6000493A3192D
:402F800002950693069B9C4256D223880393002B22D00E1C0027029B0193019B039D04CB059601933388079393B26B43079D120CEB183568DB192F0C039D6A43BA181F0CFD
:402FC000D219170C9BB21204134308C6019A049B9A42E2D3059B5F6023681B0C019321D000220D1C0B68029F03923E88019A9BB256432A680595120CB218039E9219160426
:4030000033432B6008CF019E1B0C7343AE88120C9B199B181A0C0392049A0435BA42E4D8059A536004340431ACE704380368002B05D1009B013B0093009B002BF5DC634693
:403040006046009A1A6109B0F0BD00000323F7B51340051C0E1C141C002B07D0224A013B9B009A580023FFF7D4FE061CA310019337D06C6A002C07D11020FFF76FFE6862C6
:40308000446084600460C4606F6ABC68002C10D1281C1649FFF743FF0023B860041C036007E0019B5B1001931BD0206800280FD0041C019BDB07F4D5311C221C281CFFF735
:4030C00037FF071C311C281CFFF78AFE3E1CE8E7281C211C221CFFF72BFF002320600360E6E7301CFEBDC046D852000071020000F0B50C1C171C2369551185B0EB18019325
:40310000013300934968A3680290009A9A4202DD01315B00F9E70298FFF72AFE021C061C00231432AB4204DA0020990050500133F8E7EB43DB171D40231CAD0055192269BE
:40314000143392009A1894461F22174014D00132D21B039200221968281CB9400A4304C504CB0399CA409C45F5D84260002A07D0019B0233009303E004CB04C59C45FBD86A
:40318000009B0298013B3361211CFFF729FE301C05B0F0BD03690A6910B59B1A041C181E12D1930014341431E218C918043A043913680868834204D083429B410120184359
:4031C00002E0A242F2D8002010BDF0B5071C85B0081C0C1C111C151CFFF7DCFF061E07D1381C311CFFF7C4FD01234661036155E000230193984204DA231C2C1C1D1C0123CF
:403200000193381C6168FFF7B3FD019B26692F1CC3601434B300E318021C02932B69002514379B00FB180393143208CC69469C4608CF0432009363468B808B885D19009B8A
:403240009BB2EB1A65460193009B2D0C190C019B691A1D14131F9C466B4649199B880D1409040B4361460B60039B9F42DDD30299131C8C420BD208CC99B249190D141B0C2F
:40328000EB181D1489B21B040B4308C2EFE7043B1A68002A01D1013EF9E7066105B0F0BDF7B51D1C0121089F141CFFF761FD2B036D00061C1B0B6D0D02D08022520313433F
:4032C0000193002C18D068460094FFF7F9FD009C002809D02023019A191A131C8B40C24023437361019200E07461019CB461631E9C410134346107E001A8FFF7E1FD012469
:40330000019B346173612030002D06D00B4BED1835232D183D60181A0BE0094BC018094B3860E3189B00F3185869FFF7AEFD6401201A099B1860301CFEBDC046CDFBFFFFDA
:40334000CEFBFFFFFFFFFF3F4A4338B5111C141C00F008F8051E03D00021221CFEF791FA281C38BD032370B5CC1C9C430834051C0C2C01D20C2405E0002C03DA0C2300208E
:403380002B6042E08C42F9D3204A1368101C191C002913D00A68121B0DD40B2A02D90A608B181FE08B4202D15A6802601BE04A685A600B1C17E00B1C4968E9E7144E3368EA
:4033C000002B03D1281C00F025F83060281C211C00F020F8031C421CD0D00322C61C964386420AD11C60181C07210B301A1D8843821A0AD05142995007E0311A281C00F057
:4034000009F8431CBAD0331CECE770BD1C0200201802002038B50023064C051C081C2360FDF730FB431C03D12368002B00D02B6038BDC0460805002002B47146490849001F
:40344000095C49008E4402BC7047C0468446101C62468C46191C634600E0C0461FB500F05DFF002801D40021C8421FBD10B500F0A1FE4042013010BD10B500F04FFF0028FA
:4034800001DB002010BD012010BDC04610B500F045FF002801DD002010BD012010BDC04610B500F0CBFE002801DC002010BD012010BDC04610B500F0C1FE002801DA002074
:4034C00010BD012010BDC046F0B54F46464605042D0C2C1CC0B41704160C3F0C9946030C7C4375435F4373437D19260CAD199C46AF4203D980235B029846C4444B465143BA
:40350000434324042E0C240C2D0466442C1959188919201C0CBC90469946F0BDF0B5454657464E4694464C000A03C90FE0B488460E1C1903470FC500480A6146490F014316
:403540006046520A1743C0005A00640D520DDB0F8446984500D1A7E0A01A002800DC01E1002A3DD163460B4300D0D4E06B0700D188E00F232B40042B00D183E02A1DAA42EB
:40358000AD4180236D427F191B043B404646151C002B00D17CE0CC4B01349C4200D1FDE03A1CCA4BED081A405007640552020543120B640D002112030B0D1B056405120B14
:4035C0001A436308C24CF60714401C43640064083443281C211C1CBC90469946A246F0BDB94B9C42C2D080231B041943382800DDECE01F2800DD21E120220E1C6346121A59
:403600009640C340334366469640321C561EB24113430A1CC240EB1A9D42B6411D1CBA1A7642971B3B0200D497E07A02560A002E00D1B6E0301C01F08FFD031C083B1F2BC6
:4036400000DDB7E09E40371C28262A1C361AF240161C9D403E439C4200DDB2E01C1B621C1F2A00DDD8E01F23291C1C1B331CA540A340D1406C1EA541D64019430D43371CB4
:40368000002473E780231B043B40464600D082E78D4BED0878070543FA089C4232D012036405120B640D85E7A31A002B00DC94E0002A3CD0844A944200D157E780221204C3
:4036C0001143382B00DC05E163461943481E81410022C8B24019A8429B41051CD2195B42D7183B0239D5784B01349C4200D14CE10120764A6B083A4028401843D5070543FD
:40370000570833E72B1C134348D080231B031A431203120B4EE70138002878D16346EE1AB5429B417A1A5B42D71A351C7AE7021C0A4300D11AE7013B002B00D0F2E0401935
:40374000A8429B41CA195B42D718051CC9E7131C334300D118E1171C351C46466B0700D007E795E700287AD1621C5205520D012A00DCFBE06246AA1A9542B6419146781AEC
:403780007242861A320200D493E06246551BAC458041CF1B40423E1A984648E70022002508E7281C01F0D8FC2030031C083B1F2B00DC47E7283885402E1C00259C4200DC0C
:4037C0004CE7424AE41A1640371CCFE6634619434B1E99410022CBB21DE7002B00D0F2E0601C43055B0D012B00DCA4E0364B984200D121E163465C19AC429B41CF195B42A3
:40380000FA186408D50725435708041CAEE62E4B9C4200D0EAE6A9E6211C331C1F39CB40191C202A00D182E03F231C1BA64035436E1EB54100270D4300248EE7031C0E1CBA
:40384000203BDE40202874D040231B1A99400B1C62461343591E8B4100223343DBE6002C50D0194CA24200D1A8E08024240440422743382800DDD9E01F2800DD39E12024F3
:403880003E1C241AA640B0462E1CA146C640444626434C46A5406C1EA541C74035436046451BCF1BAC45894149427F1A141C9846B8E64B464D46334300D0B8E60026002734
:4038C00000240025E4E6C046FF070000FFFF7FFFFFFF0F801F2B5BDC2022081CD21A9040814660469246D8404A4610438146524660469040021C501E8241484610430A1C92
:40390000DA40E7E63C1C2C4358D0C043002851D16046451BAC458041CF1B40423F1A141C98467FE68F4A944200D0CAE61EE600267DE700238CE73B1C2B43002C00D0BDE0C3
:40394000002B00D1F5E063460B4300D10EE663465B19AB428041CA19404217183A0200D4FCE0814A1D1C17400134FFE53A1C2A43002C51D1002A00D085E062460A4303D0C3
:403980000F1C65469846F1E50026002700257FE6181C0A1C2038C240202B00D1A7E04020C01A8140081C63461843411E8841104300228FE66B4CA24200D05AE70F1C654698
:4039C000141C9846D2E5002C3AD1381C284371D0DB43002B18D0634882426BD0382B00DD9DE01F2B00DDA7E020203C1CC01A8440A1462C1C8246DC4048460443504685400C
:403A0000681E8541DF402543654465459B417F185B42FF18141C64E6002A19D162460A4377D00F1C654698464E4C9FE53D436F1EBD410027EDB232E7041C0027002527E63A
:403A40004848824236D0802000045B420743C5E762460A4349D08024ED087807FA0824032843224209D0CE08264206D162464F07381CD20810439846321CD200470F17437C
:403A8000C500384C72E562460A4300D16EE56246AE1AB5429241781A5242821A100200D455E66246551BAC458041CA1B4042171A98465BE50F1C6546141C57E5002B34D03F
:403AC00063460B4311D08024ED087807FA08240328432242D1D0CB082342CED162464F07381CD20810431A1CC7E71E4C3EE5002059E7041C3E1C203CE640341C20282BD087
:403B00004026301A87403D436F1EBD4100272543C5E680270026FF03124C0025B8E53D436F1EBD410027EDB26EE70F1C65460D4C1CE50F1C654619E51C1C381C203CE040A8
:403B4000041C202B0CD04020C31A9F403D436F1EBD410027254357E70027D4E71D1CFCE50027F3E7FF070000FFFF7FFFF0B55F4656464D464446F0B40F0387B098464D0070
:403B80003B0BCC0F061C924681469B466D0D01946BD0664B9D4235D080275B467F031F43F3009946624BFF00400F9C4607430023BB46002665440093424617035000D20FE5
:403BC00053463F0B400D904600D172E0574A904267D080235B031F435346554A5B0FFF001F43944653460021DB0060444246624092462D1A0E430F2E00D9A1E04D48B600FD
:403C0000805987465B461E4300D076E000239B469946023308260093CEE799464346BB4601930091009B022B6BD1019B9A46002153460122002789461A403C4B00213F0303
:403C40000C0D24053F0B27433B4C1B0527401F437F00D2077F0817434846391C07B03CBC90469946A246AB46F0BD03433ED05B46002B00D19CE1584601F06EFA2823311CDB
:403C80001B1A021C5F46D940083A97400B1C96403B439B46B1460023284D00262D1A00938AE7524603213A43A0D10027002302219CE752463A4315D0002F00D185E1381C30
:403CC00001F04AFA021C28215046891A131CC8405146083B99409F400B1C074317480021801A83E70027002301217FE700239B4699460133042600935EE703230C2600935B
:403D00005AE7032B00D13CE2012B00D0BFE11A1C019B1A4000210023002789468EE700238027994600223F03004B87E7FF07000001FCFFFFE4520000FFFF0F800DFCFFFF1D
:403D4000BB4500D951E100D14CE14A46039200225C469046013D180E3F0238431B020193030C994603041B0C4946061C201C1F1C0093FDF7CFFB021C7A4302904946201CDD
:403D8000171CFDF74DFC039B09041B0C19438F420CD9029B8919013B8E4200D952E18F4200D84FE1029B8919023B0293CC1B201C4946FDF7AFFB009F834647434946201C61
:403DC000FDF72EFC039A0B041404240C23439F420DD95A469B19013A9E4200D930E19F4200D82DE10222524294469B19E344029ADB1B17045A463A439346019C170C220C66
:403E0000101C04925A4611042204120C141C090C7C4305924A43414347436118100C09188C4203D980204002844667440C0C12040804120C3C198118A34200D2E5E000D147
:403E4000DFE01F1B43465C1AA04592415242BF1AB74200D10EE1381C4946FDF75BFB009B029043434946381C9846FDF7D9FB230C0F041F43B8450CD9029BBF19013BBE42CC
:403E800000D9FBE0B84500D8F8E0029BBF19023B02934346FF1A4946381CFDF73BFB009B039043434946381C9846FDF7B9FB24040904240C214388450CD9039B8919013B97
:403EC0008E4200D9DCE0884500D8D9E0039B8919023B03934346C91A029B039A1B04059C1A43100C13049146221C049F1B0C5A4344437B437843E318170CDB199C4203D9AE
:403F000080246402A44660441C0C12041B04120C00199B18814200D296E000D1FCE04A4601231A4391469B4BEB18002B00DC99E04A4652070AD00F2249460A40042A05D0C9
:403F40000431494592418946524293445A46D20106D55A46904B1A4080239346DB00EB188E4A934200DD62E64A465946D208490711435A4689465702514601225B053F0B49
:403F80005B0D0A405AE680205A460003024208D0074206D107433F0399463F0B4246804B4CE65F4607433F033F0B221C7C4B45E601F0D2F8031C2030272800DC5EE6083BCF
:403FC0009E400023B346994665E6504601F0C4F8021C2032272A00DC75E657460838874000237BE6994500D2AFE65A46594654084A46C8075208024303924A46D207904688
:40400000A9E60027884500D31CE7019F5A46BC46E044B845BF417F42BF19FF18013ABE4206D2BC425FD800D19FE03F1B934609E7B742FAD1019B4345F3D9371B934601E792
:404040009346D4E60293B1E64A468919013A8E4218D99146814200D061E7019A9A4200D05DE760E74F4F7F1B382F13DD012253461A404FE601235B42994654E7029308E796
:40408000039327E788423CD874D0914647E7019B9A4648E71F2F44DC434B4A469C465B466544FA40AB4013434A46AA40151C6A1E95415A46FA402B43171C5A0709D00F2268
:4040C0001A40042A05D01A1D9A429B415B42FF18131C3A023ED55346012200211A40002701238946AAE502235B429C46019AE3449446E04490459B415B429B19DF193F1BAA
:40410000A0E6019F4A467C00BC42BF417F42BF19023AC91901949CE7002B95D1002201929BE75A46214B5B1BDA40202F27D0204B9C465B466544AB4049460B43591E8B4134
:404140001343072200271A4007D00F2200271A40042AB8D17A077F023F0BDB0813439946012253461A40002368E54145BBD89346002767E6019C9C42C3D391466DE7002350
:40418000DAE780275B463F031F433F033F0B019A034B53E5FF030000FFFFFFFEFE070000FF07000002FCFFFF1E040000E2FBFFFF3E040000F0B55F464D4644465646F0B4BB
:4041C0001F035C00DB0F99461B4B0E034D00C90F8446360B6D0D8B4690463F0B640D9D420CD0154B9C4210D00123A54214D0181C3CBC90469946A246AB46F0BD311C012355
:404200000143F4D10C4B9C42EED13A430123002AEDD10123A542EAD1BE42E8D1C445E6D1CB4506D0002DE2D13043031C581E8341DDE70023DBE7C046FF070000F0B5574630
:4042400045464E46E0B40F034E00C90F8A4632491D035C0084463F0B760D90462D0B640DDB0F8E420FD08C4239D0002E10D13843414241418946002C27D12A4325D1002001
:4042800000290ED108E0391C01432ED1B44226D0002C0BD09A450DD05346594201231943081C1CBC90469946A246F0BD2A43F3D09A45F1D1A642EFDC1ADA504641424841B3
:4042C000012341421943081CEBE74A46002AE1D058425841012241421143081CE1E7291C114302D1002EC2D0D4E702204042D8E7AF42D1D809D00020AF42D2D250464142B6
:404300004841012340421843CBE7C445C4D80020C445F3D3C5E7C046FF070000F0B55F464D46444656468046F0B4061C0803000B84462C484C001F035D00C90F640D8B462D
:4043400091463F0B6D0DDB0F844212D0854225D0002C14D161460E4370424641002D35D0002E21D058425841012143420B43181C0EE06146022031430AD1A5420ED0002D6D
:4043800012D13A4310D15B46594201231943081C3CBC90469946A246AB46F0BD391C02201143F5D1002CD5D09B45ECD1AC42EADC05DBBC45E7D80FD00020BC45E8D25846FE
:4043C00041424841414201200843E1E73A43C7D10020002EDCD1D6E7C845D4D80020C845EDD3D5E7FF070000F0B55F4656464D464446F0B4051C061C080387B099464F006B
:40440000030BCC0F92469B467F0D019467D06C4B9F4236D080205B4640031843C0006B0F1843684B83469C4600239846EE00674400934B4649461D03C90F5B0052462D0BA2
:404440005B0D894600D16EE05D498B4264D080205C4940038C4600210543ED00500F0543D20063444846FF187B1C9A46009B604002900B430F2B00D9ACE053489B00C35848
:404480009F465B461D4300D082E00823009300239B46023300269846CBE7029B01934346022B59D1012400250026019B1C40444B00212D030A0D12052D0B1543434A1B0573
:4044C00015401D436D00E4076D082543301C291C07B03CBC90469946A246AB46F0BD2B434ED05B46002B00D185E1584600F034FE021C2823291C9B1A161C5846D940083E76
:40450000B0400B1CB54003439B462E1C0023304F0093BF1A98468CE7514629432ED10025002202219EE75146294323D0002D00D154E1281C00F010FE031C28215046C91A62
:404540001A1CC8405146083A914095400A1C05431F480021C31A85E7032B00D1C2E1012B00D06DE14446019B00251C40E4B2002300269DE700250022012173E7032171E70A
:404580000423009300239B4601330026984650E70C230093093B98464BE7802500242D030026074B84E74B46AB46161C0193884675E7029BAB46161C019388466FE7C046EC
:4045C000FF07000001FCFFFF24530000FFFF0F800DFCFFFF330C3604360C9C46331C140C1204120C53439846634653439946634663430193331C41466343090C4B445B1867
:40460000994505D9802040028146019949440191190C039141460904090C1B045B1804932B0C9846331C2D04290C4B43604600934346654658435E43009B4D431B0C99469F
:40464000AE194E448446B54203D980235B029946CC44350C2B1C0398634484460593009B36041B041B0CF3189C446046039058460504060C280C84465043351C81466046E2
:40468000654344434846000C8346724314195C44A24203D98022520293465D44220CAD184A461204120C24044046A41862464A437143464360460096464670438046100CC6
:4046C00084468844E044414505D9802149028C46009961440091019803998446614499429B415B4299460598434684461204120C1B049B1863449C46AB4683429B414046A1
:404700000A19CC44A2428941E344CC45B6415C46000C8046494276425B426418334398448C428941AB459B4149425B4219430D1C009B4544EE187602E50D2E43B346049B99
:4047400056021E43731E9E415B46D20D324366021643DB010AD50123334076081E435B46DB071E435B465B089B465746634BFB18002B5ADD720709D00F223240042A05D0A8
:40478000321DB242B6417642B344161C5A46D20106D55A465A4B1A4080239346DB00FB18584A934234DD0124029B00251C400026554B7DE680205B460003034208D00542EB
:4047C00006D105432D032D0B4C46161C4E4B6FE65D4605432D032D0B4B4B69E6504600F0BBFC031C2033272B00DCA6E65546083885400022ACE6281C00F0AEFC021C20323D
:40480000272A00DC75E6083885400026AB467DE65A46F608520716435A4601245502029A5B052D0B5B0D144042E6384DED1B382D0ADD0124029B00251C400026002337E66B
:40484000019B5746029391E71F2D25DC304B321C9C466744BE405B46BB40371CEA407E1EB74113433B431E1C5B46EB401D1C730709D00F233340042B05D0331DB342B64159
:404880007642AD191E1C2B0220D50124029B00251C40002601230BE65A461E4BDB1BDA40131C202D1CD01C4A94465A466744BA40171C3E43721E96411E430723002533405C
:4048C00007D00F2300253340042BD6D16B076D022D0B0124F6081E43029B1C400023E7E50027E6E780255B4601242D031D43019B2D0323401C1C2D0B034BD9E5FF03000020
:40490000FFFFFFFEFE070000FF07000002FCFFFF1E040000E2FBFFFF3E040000F0B54D4644465F465646F0B40E1C111C3203520A470F1743C5001A035800DB0F9946520A98
:404940004B0F83B01A43CB000193CF4B7400F60F640DB046400D984200D1E8E00123494659400B1C9E4200D1B1E0261A002E00DC1CE1002842D1131C01990B4300D0E6E050
:404980006B0700D18EE00F232B40042B00D189E02A1DAA42AD418023012641466D427F191B043B400E40151C002B00D183E0B64B01349C4200D116E13A1CB44BED081A408F
:4049C0005007640552020543120B640D002112030B0D1B056405120B1A436308AC4CF60714401C43640064083443281C211C03B03CBC90469946A246AB46F0BDA24B9C42F0
:404A0000BED080231B041A43382E00DD03E11F2E00DD3FE12020831B9946131C49468B409C46019B6046F34003430198F2408840011C481E81410B43EB1A9D4280411D1C71
:404A4000BA1A4042171A3B0200D4A8E07A02560A002E00D1CAE0301C00F07EFB031C083B1F2B00DDCBE02822291C121AD1409E400A1C9D4032439C4200DDC8E01C1B671C69
:404A80001F2F00DDEDE01F23291C1C1B131CA540A340F9406C1EA541FA4019430D43171C00246DE78023012642461B043B401640002B00D07BE7744BED0878070543FA08F3
:404AC0009C423BD012036405120B640D7EE7231A9A46002B00DCA5E0002844D06A48844200D14DE78020000402435346382B00DC1CE1019B1A43511E8A41D1B20022491902
:404B0000A94280410D1CD219404217183B0246D55D4B01349C4200D169E101205B4A6B083A4028401843D5070543570828E7131C01990B4300D111E74B4613E72B1C1343C6
:404B400051D080231B031A431203120B3EE7013E002E00D080E0691A8D429B41BA1A5B42D71A0D1C6FE7101C019B184300D107E701235B429C46E2445346002B00D002E1D1
:404B8000019BD2195919A9429B415B42D7180D1CBCE76346034300D128E1071C65466B0700D0F0E6012643461E4084E7002E00D081E0601C4005400D012800DC07E10199C1
:404BC000681A84466545B641B81A7642861B300200D4A1E08C464D1BAC458941D21B4942561A984634E700220025EFE6281C00F0B3FA2030031C083B1F2B00DC33E7021C33
:404C0000283A95402A1C00259C4200DC36E71F4FE41A1740B4E6019B1A43511E8A41D3B2002209E7002B00D001E1601C43055B0D012B00DCB0E0144B984200D11EE1019B8E
:404C4000D2195919A9429B415B42D2184908D5070D435708041C93E60B4B9C4200D0D3E68EE6211C131C1F39CB40191C202F00D18EE03F231C1BA24015436A1E95410027F9
:404C80000D4300248BE7C046FF070000FFFF7FFFFFFF0F80331C101C203BD840202E79D040239B1B9A40131C019A1343591E8B4100220343C0E6002C53D0C74CA04200D1FB
:404CC000B0E0802471428946240427434946382900DDCDE01F2900DD59E120243E1C611A8E408A46B04649462E1CCE405146B4468D4064464646494626436C1EA541CF40F4
:404D000035430199D71B8C464D1BAC4592415242BF1A041C984696E663466546334300D096E60026002700240025C4E61F2B61DC2020C31A9B46131C59468B4051469946A0
:404D4000019BCB409C464B46604603439C465B46019999406346481E814119435346DA40CDE63C1C2C435DD0F1438946002955D10199D21B8C464D1BAC4589414942571AE6
:404D8000041C98465FE69448844200D0ADE6F7E5002271E7002387E73B1C2B43002C00D0DAE0002B00D113E1131C01990B4300D1E6E54919A9429B41D2195B42D7183B02C9
:404DC00000D421E1854B0D1C1F40041CD8E5381C2843002C40D1002800D083E0101C0199084303D0171C0D1C9846C9E500260027002560E65046131C2038C340181C5346E0
:404E0000202B00D1C1E0402351465B1A9A40019911434A1E91410022014370E66E4CA04200D053E7171C019D041C9846A8E5002C28D13C1C2C4300D18AE0DB439A46002B36
:404E400000D082E0019BD2199C4665449D42894149425718041C59E600285BD1101C0199084300D1A4E0171C0D1C98465A4C87E53D436F1EBD410027EDB242E7041C0027A5
:404E8000002518E6544CA04262D0534680245B429A46240427435346382B00DD8EE01F2B00DD9DE02024E31A9B463B1C59468B40514699462B1CCB409C464B4664462343B6
:404EC0009C465B469D4063466C1EA541CF401D43019BBF189C4665449D4292415242BF18041C13E6101C0199084300D148E5681A844685428041BE1A4042301A060200D433
:404F000047E68C464D1BAC458941D21B4942571A984635E5101C0199084334D080247807ED08FF0824032843274208D0D608264205D1C90852070A43101C371C9846FF0078
:404F4000420F1743C500244C1AE5234CA042A2D1171C019D041C13E5002B35D0131C01990B4310D080247807ED08FF08240328432742E4D0D3082342E1D1C90852070A4347
:404F8000101C1F1CDBE7144CFAE400223FE74C463E1C203CE6404946341C202932D04026761AB7403D436F1EBD4100272543A8E680270026FF03084C00257CE53D436F1EDF
:404FC000BD410027EDB283E7171C019D024CD7E4171C019DD4E4C046FF070000FFFF7FFF54463B1C203CE3401C1C5346202B0DD0402351465B1A9F403D436F1EBD410027AF
:40500000254365E70027CDE70D1CC8E50027F3E70B0330B5134C1A0B4B00051C5B0DC90F0020A34210DD104883420EDC80200F4C40030243E41A1F2C0ADD0D48C31ADA40EF
:40504000131C48424340581830BD0A4BC818FBE7281CE040084CA44663449A40131C0343EFE7C046FE0300001D0400003304000013040000FFFFFF7FEDFBFFFF38B5041E2B
:4050800016D0C50F00D04442201C00F065F8174B1B1A0A2821DC021C211C153291400A1C0B21081AC4405B052403240B5B0D03E000250023002400220021101C24030A0D8C
:4050C0001205240B14430A4A1B0514401C436400ED0764082C43211C38BD0B3884405B052403240B5B0D0022E6E7C0461E040000FFFF0F8010B5041E10D000F02DF8144A84
:40510000121A0A281ADC0B23211C1B1AD94015300B03520584401B0B520D01E00022002300211B03201C1C0B0B0D1B052343094C1205234013435B00590810BD031C0B3BF6
:405140009C40520523031B0B520D0024E8E7C0461E040000FFFF0F801C2101231B04984201D3000C10391B0A984201D3000A08391B09984201D30009043902A2105C401888
:405180007047C046040302020101010100000000000000000000000048656C6C6F20776F726C6400EEDBC9B9AA9B8E82766B60564D443B332C241D17100A04004300494E35
:4051C0004600696E66004E414E006E616E003000496E66696E697479004E614E00504F534958002E00000000000000000000F03F00000000000024400000000000005940AE
:405200000000000000408F40000000000088C34000000000006AF8400000000080842E4100000000D01263410000000084D797410000000065CDCD41000000205FA0024263
:40524000000000E876483742000000A2941A6D42000040E59C30A2420000901EC4BCD64200003426F56B0C430080E03779C3414300A0D8855734764300C84E676DC1AB43BB
:40528000003D9160E458E143408CB5781DAF154450EFE2D6E41A4B4492D54D06CFF08044F64AE1C7022DB544B49DD9794378EA440080E03779C34143176E05B5B5B8934609
:4052C000F5F93FE9034F384D321D30F94877825A3CBF737FDD4F157505000000190000007D000000403D00002E3C0000143D00001A3C0000143D00001E3D0000143D0000E5
:405300001A3C00002E3C00002E3C00001E3D00001A3C0000243C0000243C0000243C0000863F0000D4450000B2450000B2450000A64500009A4400009A4400009A45000020
:40534000A64500009A4400009A4500009A440000A64500009E4400009E4400009E440000B4470000F8B5C046F8BC08BC9E46704735010000FD0A0000F8B5C046F8BC08BCED
:405380009E4670470D0100009853000098000020C8000000B0030000000000001E0000000A0000001400000001000000100500200000C05D80BB000030000000006CDC02E2
:4053C000040404000000000000000000000000000000000000000000000000000000000000000000BC51000000000000000000000000000000000000000000000000000094
:40540000000000000000000000000000000000000000000000000000000000000000000000000000C4000020E3510000E4510000E4510000E4510000E4510000E45100004B
:40544000E4510000E4510000E4510000E4510000FFFFFFFFFFFFFFFFFFFFFFFFFFFF0000000000000000000000000000000000000000000000000000000000000000000066
:4054800000000000000000000000000000000000000000000000000000000000000000000000000000000000000000000000000000000000000000000000000000000000EC
:4054C00000000000000000000000000000000000000000000000000000000000000000000000000000000000000000000000000000000000000000000000000000000000AC
:40550000000000000000000000000000000000000000000000000000000000000000000000000000000000000000000000000000000000000000000000000000000000006B
:40554000000000000000000000000000000000000000000000000000000000000000000000000000000000000000000000000000000000000000000000000000000000002B
:0200000490303A
:020000008B6C07
:0200000490402A
:4000000000000000000000000000000000000000000000000000000000000000000000000000000000000000000000000000000000000000000000000000000000000000C0
:0200000490501A
:0C00000000021B0E11AB00011B299D1714
:0200000490600A
:0100000001FE
:00000001FF